:100000000C9463000C948B000C948B000C948B006C
:100010000C948B000C948B000C948B000C948B0034
:100020000C948B000C948B000C948B000C948B0024
:100030000C948B000C948B000C948B000C948B0014
:100040000C949A030C948B000C940A040C94E40313
:100050000C948B000C948B000C948B000C948B00F4
:100060000C948B000C948B000000000023002600F1
:10007000290000000000240027002A0000000000E2
:10008000250028002B0004040404040404040202D4
:100090000202020203030303030301020408102007
:1000A0004080010204081020010204081020000012
:1000B0000008000201000003040700000000000027
:1000C000000081040C0811241FBECFEFD8E0DEBF72
:1000D000CDBF22E0A4E5B1E001C01D92A830B20777
:1000E000E1F711E0A0E0B1E0EAEDF8E102C005902F
:1000F0000D92A435B107D9F710E0C2E6D0E004C0F4
:100100002197FE010E944F0AC136D107C9F70E940C
:10011000B3040C94600C0C94000090E0FC01E255D8
:10012000FF4F2491FC01E656FF4F3491FC01EA5742
:10013000FF4FE491EE23C9F0222339F0233001F17F
:10014000A8F4213019F1223029F1F0E0EE0FFF1F61
:10015000E458FF4FA591B4918FB7F894EC916111D9
:1001600026C030953E233C938FBF08952730A9F0D9
:100170002830C9F0243049F7809180008F7D03C07A
:10018000809180008F7780938000DFCF84B58F7758
:1001900084BDDBCF84B58F7DFBCF8091B0008F779E
:1001A0008093B000D2CF8091B0008F7DF9CF3E2BED
:1001B000DACFCF93DF9390E0FC01E656FF4F249116
:1001C0008A579F4FFC0184918823D1F090E0880FDB
:1001D000991FFC01EE58FF4FA591B491FC01E45822
:1001E000FF4FC591D49161110EC09FB7F8948C91C7
:1001F000E22FE0958E238C932881E223E8839FBF32
:10020000DF91CF9108958FB7F894EC91E22BEC93A6
:100210008FBFF6CF3FB7F89480915D0190915E015A
:10022000A0915F01B091600126B5A89B05C02F3F4A
:1002300019F00196A11DB11D3FBFBA2FA92F982F0C
:100240008827BC01CD01620F711D811D911D42E007
:10025000660F771F881F991F4A95D1F70895AF92AF
:10026000BF92CF92DF92EF92FF920F931F93CF93A3
:10027000DF936C017B018B01040F151FEB015E0105
:10028000AE18BF08C017D10759F06991D601ED919A
:10029000FC910190F081E02DC6010995892B79F739
:1002A000C501DF91CF911F910F91FF90EF90DF90EB
:1002B000CF90BF90AF900895FC01538D448D252FB2
:1002C00030E0842F90E0821B930B541710F0CF96F0
:1002D000089501970895FC01918D828D981761F022
:1002E000A28DAE0FBF2FB11D5D968C91928D9F5F39
:1002F0009F73928F90E008958FEF9FEF0895FC0118
:10030000918D828D981731F0828DE80FF11D858DCA
:1003100090E008958FEF9FEF0895FC01918D228D5D
:10032000892F90E0805C9F4F821B91098F739927E2
:10033000089581E691E00E948D0121E0892B09F466
:1003400020E0822F089580E090E0892B29F00E9420
:10035000990181110C9400000895FC01A48DA80F4F
:10036000B92FB11DA35ABF4F2C91848D90E00196F7
:100370008F739927848FA689B7892C93A089B18917
:100380008C91837080648C93938D848D981306C0B8
:100390000288F389E02D80818F7D80830895EF921C
:1003A000FF920F931F93CF93DF93EC0181E0888F2F
:1003B0009B8D8C8D98131AC0E889F989808185FFFF
:1003C00015C09FB7F894EE89FF896083E889F989A1
:1003D00080818370806480839FBF81E090E0DF91A3
:1003E000CF911F910F91FF90EF900895F62E0B8DF6
:1003F00010E00F5F1F4F0F731127E02E8C8D8E11B1
:100400000CC00FB607FCFACFE889F989808185FF17
:10041000F5CFCE010E94AD01F1CFEB8DEC0FFD2F9A
:10042000F11DE35AFF4FF0829FB7F8940B8FEA89D2
:10043000FB8980818062CFCFCF93DF93EC01888DE1
:100440008823B9F0AA89BB89E889F9898C9185FD4F
:1004500003C0808186FD0DC00FB607FCF7CF8C91DD
:1004600085FFF2CF808185FFEDCFCE010E94AD01E7
:10047000E9CFDF91CF910895FB01DC018D919C9133
:10048000009761F0608171816115710539F04481D7
:1004900055810E94520C21E0892B09F020E0822F27
:1004A0000895FC0101900020E9F73197AF01481B46
:1004B000590BBC0181E691E00C942F018F929F9221
:1004C000AF92BF920F931F93CF93DF93CDB7DEB759
:1004D000A1970FB6F894DEBF0FBECDBF19A2423070
:1004E00008F44AE08E010F5D1F4F842E912CB12C31
:1004F000A12CA50194010E942D0AE62FB901CA0181
:10050000EA30F4F4E05DD801EE938D01232B242B27
:10051000252B79F790E080E0109719F0CD010E942B
:100520005102A1960FB6F894DEBF0FBECDBFDF918A
:10053000CF911F910F91BF90AF909F908F90089592
:10054000E95CE1CFCF92DF92EF92FF92CF93DF93FE
:100550006B017C016DE281E691E00E94CF01EC012C
:1005600066277727CB016C197D098E099F094AE020
:100570000E945E028C0F9D1FDF91CF91FF90EF9044
:10058000DF90CF900895BC01990F880B990B97FDD0
:100590000C94A2024AE00C945E02FC0180819181DD
:1005A000009711F00C94F10A08950F931F93CF93C5
:1005B000DF93EC0188819981009759F02A813B8172
:1005C0002617370730F081E0DF91CF911F910F910F
:1005D00008958B016F5F7F4F0E947A0B009759F04F
:1005E000998388831B830A832C813D81232B59F7B0
:1005F000FC011082E8CF80E0E7CFEF92FF920F93EB
:100600001F93CF93DF93EC017B018A01BA010E9413
:10061000D50228813981811114C02115310519F0C5
:10062000C9010E94F10A198218821D821C821B8254
:100630001A82CE01DF91CF911F910F91FF90EF9021
:1006400008951D830C83B701C9010E944B0CF1CFA3
:10065000FB0101900020E9F73197AF01461B570BD2
:100660000C94FD02FC011182108213821282158209
:100670001482FB0101900020E9F73197AF01461B7E
:10068000570B0C94FD02AF92BF92CF92DF92EF9284
:10069000FF920F931F93CF93DF93EC015B016A01ED
:1006A00079012417350720F48D2D6901E42EF82EE9
:1006B00062E571E0CE010E943203D50114960D91DE
:1006C0001C91C016D106E8F4E016F10608F4870183
:1006D000D501ED91FC911197E00FF11FF080108290
:1006E0006D917C916C0D7D1D61157105B1F0CE0190
:1006F0000E942803F50180819181080F191FD801FC
:10070000FC92CE01DF91CF911F910F91FF90EF905E
:10071000DF90CF90BF90AF90089588819981009726
:1007200011F00E94F10A198218821D821C821B821C
:100730001A82E0CF1F920F920FB60F9211242F93BF
:100740003F938F939F93AF93BF9380915901909163
:100750005A01A0915B01B0915C013091580123E0F6
:10076000230F2D3758F50196A11DB11D2093580177
:100770008093590190935A01A0935B01B0935C015F
:1007800080915D0190915E01A0915F01B091600147
:100790000196A11DB11D80935D0190935E01A09310
:1007A0005F01B0936001BF91AF919F918F913F9195
:1007B0002F910F900FBE0F901F90189526E8230FD2
:1007C0000296A11DB11DD2CF1F920F920FB60F92AC
:1007D00011242F933F934F935F936F937F938F9346
:1007E0009F93AF93BF93EF93FF9381E691E00E94B5
:1007F000AD01FF91EF91BF91AF919F918F917F914B
:100800006F915F914F913F912F910F900FBE0F907D
:100810001F9018951F920F920FB60F9211242F93CD
:100820008F939F93EF93FF93E0917101F091720189
:100830008081E0917701F091780182FD1BC0908169
:1008400080917A018F5F8F7320917B01821741F035
:10085000E0917A01F0E0EF59FE4F958F80937A0195
:10086000FF91EF919F918F912F910F900FBE0F905D
:100870001F9018958081F4CFCF92DF92EF92FF9274
:100880000F931F93E82FF92F05C00150110921097B
:10089000310961F1908196239417B9F305C0015095
:1008A00011092109310911F1908196239413F7CF91
:1008B000C12CD12CE12CF12C0AC08FEFC81AD80A18
:1008C000E80AF80A0C151D052E053F0579F0808110
:1008D0008623841791F36C2D7D2D8E2D9F2D1F91D6
:1008E0000F91FF90EF90DF90CF90089560E070E05F
:1008F00080E090E01F910F91FF90EF90DF90CF90FC
:100900000895E1E6F1E01382128288EE93E0A0E020
:10091000B0E084839583A683B78380E191E09183DF
:10092000808385EC90E09587848784EC90E09787BE
:10093000868780EC90E0918B808B81EC90E0938BAC
:10094000828B82EC90E0958B848B86EC90E0978B89
:10095000868B118E128E138E148E62E571E08EEFEF
:1009600091E00C943203CF93DF93CDB7DEB762975B
:100970000FB6F894DEBF0FBECDBF789484B5826009
:1009800084BD84B5816084BD85B5826085BD85B533
:10099000816085BD80916E00816080936E001092B1
:1009A000810080918100826080938100809181002C
:1009B00081608093810080918000816080938000BD
:1009C0008091B10084608093B1008091B00081601B
:1009D0008093B00080917A00846080937A00809147
:1009E0007A00826080937A0080917A00816080939F
:1009F0007A0080917A00806880937A001092C1001A
:100A0000E0917101F091720182E08083E0916D01CB
:100A1000F0916E011082E0916F01F09170018FEC06
:100A2000808310927901E0917501F091760186E062
:100A30008083E0917301F0917401808180618083F3
:100A4000E0917301F0917401808188608083E0916E
:100A50007301F0917401808180688083E09173015B
:100A6000F091740180818F7D808361E085E00E9438
:100A7000D90060E084E00E94D90061E08AE00E9431
:100A8000D90061E08BE00E94D90061E08CE00E9417
:100A9000D90060E08AE00E948D0060E08BE00E9457
:100AA0008D0060E08CE00E948D0023E0A22EB12C2E
:100AB00081E691E00E948D01892B09F45DC181E6F8
:100AC00091E00E946B018A3009F032C11E861D86BA
:100AD000188A1F861A8A198A6091FE017091FF0197
:100AE0006115710541F04091020250910302CE015F
:100AF0000D960E94FD02CD84DE84C114D10409F458
:100B000047C009891A8976010115110561F4CE01E2
:100B10000D960E94CD0262E571E08EEF91E00E9499
:100B20002803C6CF730137012FEF621A720AF7014B
:100B30008081082E000C990B0E944C08892B91F79C
:100B4000015011090C0D1D1DF8018081082E000CAB
:100B5000990B0E944C08892B31F00E151F0518F0D7
:100B600001501109F1CFA8014F5F5F4F4E195F0986
:100B70005A8B498BCE14DF0420F4B701C6010E94C2
:100B8000370CED85FE8589899A89E80FF91F108257
:100B9000F12CE12CC988DA88EC14FD0408F0B7CFF9
:100BA0006D847E846BE370E0C3018E0D9F1D0E94F7
:100BB000400C009731F08C01061917090F3F100700
:100BC00009F486019801A701BE01635F7F4FCE0142
:100BD00007960E9443036FE371E0CE0101960E94E5
:100BE00032032B853C858D819E81F12C2817390796
:100BF00040F0BE016F5F7F4FCE0107960E943C021E
:100C0000F82ECE0101960E94CD02FF2031F12B85F6
:100C10003C8544E050E0BE01695F7F4FCE01019604
:100C20000E94430389819A81009799F00E941008DD
:100C30007093030160930201CE0101960E94CD02E0
:100C400078012FEFE21AF20ACE0107960E94CD0238
:100C5000A1CF60E070E0CB01EBCF65E471E0CE01A5
:100C600001960E9432032B853C858D819E81281739
:100C7000390740F0BE016F5F7F4FCE0107960E949B
:100C80003C02F82ECE0101960E94CD02FF20D1F049
:100C90002B853C8544E050E0BE01695F7F4FCE016B
:100CA00001960E94430389819A81009739F00E943E
:100CB00010087093010160930001BECF60E070E006
:100CC000CB01F7CF6BE471E0CE0101960E943203B5
:100CD0002B853C858D819E812817390740F0BE0108
:100CE0006F5F7F4FCE0107960E943C02F82ECE0127
:100CF00001960E94CD02FF2009F4A2CF2B853C85EE
:100D000044E050E0BE01695F7F4FCE0101960E9432
:100D1000430389819A81009739F00E9410087093EB
:100D200005016093040188CF60E070E0CB01F7CF4C
:100D300089831A8200910202109103020F5F1F4FF4
:100D4000B8018EEF91E00E94D502882309F4B0CE5D
:100D50002091FE013091FF018091020290910302E7
:100D6000BE016F5F7F4F820F931F0E944B0C109349
:100D70000302009302029CCE60E085E00E948D0099
:100D8000C5010197F1F761E085E00E948D0083E2E3
:100D900090E00197F1F760E085E00E948D00EEE9B8
:100DA000F0E06491EAE8F0E0E491F0E0EE0FFF1F7C
:100DB000E859FF4F8591949100E315E720E030E07A
:100DC000462F0E943C040091040110910501611519
:100DD00071058105910559F06F5F7F4F8F4F9F4FD0
:100DE0009F70611571058105910509F0DEC0B8019C
:100DF000012E000C880B990B0E9457086B017C0197
:100E0000B801012E000C880B990B0E945708A7010E
:100E100096010E948A090E94F70977FF02C070E0DC
:100E200060E0601771070CF48B016EE171E0CE0198
:100E300001960E94320380910201909103010817EC
:100E400019070CF0C1C061E08AE00E948D0060E0EB
:100E50008BE00E948D0061E08CE00E948D0065E2D5
:100E600071E0CE0101960E9428032FB7F89480917B
:100E7000590190915A01A0915B01B0915C012FBF83
:100E80004091540150915501609156017091570164
:100E9000841B950BA60BB70B883E9340A105B105AB
:100EA00008F44EC02FB7F8948091590190915A01DF
:100EB000A0915B01B0915C012FBF8093540190938E
:100EC0005501A0935601B09357018EE291E00E9424
:100ED0005102C8010E94C30285E391E00E945102C1
:100EE0004D815E8169817A8181E691E00E942F01C6
:100EF0008EE391E00E9451028091020190910301E2
:100F00000E94C30284E491E00E945102809100019A
:100F1000909101010E94C3028AE491E00E94510273
:100F20006091040170910501072E000C880B990B4C
:100F300097FF6EC00E94A20280E591E00E945102DC
:100F40000E940A012B013C0184E6C82ED12CE12C21
:100F5000F12C0E940A016419750986099709683EF7
:100F6000734081059105A8F3F1E0CF1AD108E1089B
:100F7000F10828EE420E23E0521E611C711CC114C0
:100F8000D104E104F10429F7CE0101960E94CD02BB
:100F900080E090E0892B09F48BCD0E949901882391
:100FA00009F486CD0E94000083CD0E94570828E2F4
:100FB0003EE74CE05DE30E94920820E030E040E034
:100FC0005FE30E9492081ACF809100019091010185
:100FD00060E08017910774F48AE00E948D0061E060
:100FE0008BE00E948D0061E08CE00E948D0069E240
:100FF00071E037CF8AE00E948D0060E08BE00E94B4
:101000008D0060E08CE00E948D006EE171E029CFE0
:101010004AE00E945E0290CF8EEF91E00C94CD02E8
:101020001F93FC0199278827BC01E8941191103285
:10103000E9F3193010F01E30C8F31B3251F01D32A5
:1010400049F4689406C00E943708610F711D811D24
:10105000911D119110531A30B0F33EF49095809584
:10106000709561957F4F8F4F9F4F1F910895592F16
:10107000482F372F262F660F771F881F991F660F5F
:10108000771F881F991F620F731F841F951F660F9C
:10109000771F881F991F089591110C94FF088032C3
:1010A00019F089508550C8F70895E89409C097FB56
:1010B0003EF490958095709561957F4F8F4F9F4F2F
:1010C0009923A9F0F92F96E9BB279395F695879573
:1010D00077956795B795F111F8CFFAF4BB0F11F436
:1010E00060FF1BC06F5F7F4F8F4F9F4F16C08823DD
:1010F00011F096E911C0772321F09EE8872F762F13
:1011000005C0662371F096E8862F70E060E02AF053
:101110009A95660F771F881FDAF7880F969587953F
:1011200097F908950E94A5080C9419090E940B09CB
:1011300038F00E94120920F0952311F00C94020956
:101140000C94080911240C944D090E942A0970F38B
:10115000959FC1F3950F50E0551F629FF001729F5C
:10116000BB27F00DB11D639FAA27F00DB11DAA1F6B
:10117000649F6627B00DA11D661F829F2227B00DB8
:10118000A11D621F739FB00DA11D621F839FA00D43
:10119000611D221F749F3327A00D611D231F849F93
:1011A000600D211D822F762F6A2F11249F575040EA
:1011B0009AF0F1F088234AF0EE0FFF1FBB1F661F65
:1011C000771F881F91505040A9F79E3F510580F02E
:1011D0000C9402090C944D095F3FE4F3983ED4F35C
:1011E000869577956795B795F795E7959F5FC1F7D2
:1011F000FE2B880F911D9695879597F9089599274D
:101200008827089597F99F6780E870E060E0089567
:101210009FEF80EC089500240A941616170618060E
:101220000906089500240A941216130614060506EA
:101230000895092E0394000C11F4882352F0BB0F7B
:1012400040F4BF2B11F460FF04C06F5F7F4F8F4FDE
:101250009F4F089557FD9058440F551F59F05F3F19
:1012600071F04795880F97FB991F61F09F3F79F0C8
:1012700087950895121613061406551FF2CF46954A
:10128000F1DF08C0161617061806991FF1CF8695CC
:101290007105610508940895E894BB2766277727B0
:1012A000CB0197F908952F923F924F925F926F92E0
:1012B0007F928F929F92AF92BF92CF92DF92EF92E6
:1012C000FF920F931F93CF93DF93CDB7DEB7CA1B67
:1012D000DB0B0FB6F894DEBF0FBECDBF09942A8892
:1012E000398848885F846E847D848C849B84AA843A
:1012F000B984C884DF80EE80FD800C811B81AA81C7
:10130000B981CE0FD11D0FB6F894DEBF0FBECDBF91
:10131000ED0108955058BB27AA270E94A2090C94FA
:1013200019090E940B0938F00E94120920F039F4C3
:101330009F3F19F426F40C9408090EF4E095E7FB9E
:101340000C940209E92F0E942A0958F3BA17620780
:1013500073078407950720F079F4A6F50C944C09DF
:101360000EF4E0950B2EBA2FA02D0B01B9019001C0
:101370000C01CA01A0011124FF27591B99F0593F04
:1013800050F4503E68F11A16F040A22F232F342F4C
:101390004427585FF3CF469537952795A795F0409A
:1013A0005395C9F77EF41F16BA0B620B730B840BAF
:1013B000BAF09150A1F0FF0FBB1F661F771F881F67
:1013C000C2F70EC0BA0F621F731F841F48F48795BF
:1013D00077956795B795F7959E3F08F0B0CF9395B1
:1013E000880F08F09927EE0F9795879508950E942A
:1013F000FE096894B1110C944D0908950E943209B8
:1014000088F09F5798F0B92F9927B751B0F0E1F0C5
:10141000660F771F881F991F1AF0BA95C9F714C075
:10142000B13091F00E944C09B1E008950C944C0940
:10143000672F782F8827B85F39F0B93FCCF38695AE
:1014400077956795B395D9F73EF49095809570950B
:1014500061957F4F8F4F9F4F0895A1E21A2EAA1BCF
:10146000BB1BFD010DC0AA1FBB1FEE1FFF1FA21754
:10147000B307E407F50720F0A21BB30BE40BF50B51
:10148000661F771F881F991F1A9469F760957095DA
:10149000809590959B01AC01BD01CF010895EE0FA1
:1014A000FF1F0590F491E02D09940F931F93CF93A4
:1014B000DF938230910510F482E090E0E091060223
:1014C000F091070230E020E0B0E0A0E0309799F41E
:1014D0002115310509F44AC0281B390B2430310588
:1014E000D8F58A819B816115710589F1FB01938390
:1014F0008283FE0111C0408151810281138148170E
:101500005907E0F04817590799F4109761F01296BF
:101510000C93129713961C933296CF01DF91CF91C3
:101520001F910F9108950093060210930702F4CFC4
:101530002115310551F04217530738F0A901DB019D
:101540009A01BD01DF01F801C1CFEF01F9CF9093FE
:10155000070280930602CDCFFE01E20FF31F8193B5
:1015600091932250310939832883D7CF20910402E7
:1015700030910502232B41F420910801309109019B
:101580003093050220930402209106013091070157
:101590002115310541F42DB73EB740910A01509114
:1015A0000B01241B350BE0910402F0910502E217B8
:1015B000F307A0F42E1B3F0B2817390778F0AC0176
:1015C0004E5F5F4F2417350748F04E0F5F1F509353
:1015D000050240930402819391939FCFF0E0E0E0F5
:1015E0009CCFCF93DF930097E9F0FC0132971382F1
:1015F0001282A0910602B0910702ED0130E020E0D6
:101600001097A1F420813181820F931F2091040251
:10161000309105022817390709F061C0F0930502DF
:10162000E0930402DF91CF910895EA01CE17DF071E
:10163000E8F54A815B819E0141155105B1F7E90149
:10164000FB83EA8349915991C40FD51FEC17FD071D
:1016500061F4808191810296840F951FE90199833D
:101660008883828193819B838A83F0E0E0E01296F5
:101670008D919C9113970097B9F52D913C911197FD
:10168000CD010296820F931F209104023091050232
:101690002817390739F6309751F510920702109242
:1016A0000602B0930502A0930402BCCFD383C28389
:1016B00040815181840F951FC817D90761F44E5F8F
:1016C0005F4F88819981480F591F518340838A81D8
:1016D0009B81938382832115310509F0B0CFF0936C
:1016E0000702E09306029ECFFD01DC01C0CF13820A
:1016F0001282D7CFB0E0A0E0E0E8FBE00C945509FF
:101700008C01009751F4CB010E94550A8C01C8014D
:10171000CDB7DEB7E0E10C947109FC01E60FF71FCD
:101720009C0122503109E217F30708F49DC0D9014A
:10173000CD91DC911197C617D70798F0C530D10528
:1017400030F3CE0104978617970708F3C61BD70B13
:101750002297C193D1936D937C93CF010E94F10A9C
:10176000D6CF5B01AC1ABD0A4C018C0E9D1EA09118
:101770000602B0910702512C412CF12CE12C10975C
:1017800031F580910402909105028815990509F0C0
:101790005CC04616570608F058C08091060190912B
:1017A0000701009741F48DB79EB740910A0150910F
:1017B0000B01841B950BE817F90708F055C0F0934F
:1017C0000502E0930402F90171836083A0CF8D913B
:1017D0009C91119712966C90129713967C90139788
:1017E000A815B90559F56C0142E0C40ED11CCA1404
:1017F000DB0420F1AC014A195B09DA011296159756
:1018000080F06282738251834083D9016D937C930F
:10181000E114F10471F0D7011396FC93EE93129743
:1018200076CF22968C0F9D1FF90191838083F3015F
:10183000EFCFF0930702E093060269CF48165906EE
:1018400008F42C017D01D3019ACFCB010E94550AE7
:101850007C01009749F0AE01B8010E94370CC80125
:101860000E94F10A870153CF10E000E050CFFB0146
:10187000DC0102C001900D9241505040D8F708950C
:10188000FC018191861721F08823D9F799270895C3
:101890003197CF010895FB01DC0101900D920020EA
:1018A000E1F70895FB01DC014150504030F08D918B
:1018B0000190801919F40020B9F7881B990B08953D
:1018C00010E0C2E6D0E004C0FE010E944F0A21965B
:0A18D000C336D107C9F7F894FFCF23
:1018DA0050001400640000000802800000000000AC
:1018EA00CF012F015C011C028D016B017F014E4F5C
:1018FA00524D414C004C4F570048494748004C450F
:10190A0056454C3A003B5354415455533A003B4DCB
:10191A00494E3A003B4D41583A003B414C543A003B
:04192A000D0A0000A2
:00000001FF
