:020000040000FA
:100000000C945D000C94BB040C9494040C94850037
:100010000C9485000C9485000C94BC130C94850002
:100020000C9485000C9485000C9485000C9485003C
:100030000C9485000C9485000C9485000C9485002C
:100040000C944A040C9485000C9408050C94E2046A
:100050000C9485000C9485000C9485000C9485000C
:100060000C9485000C9485000000000024002700FB
:100070002A0000000000250028002B0004040404CE
:100080000404040402020202020203030303030342
:10009000010204081020408001020408102001021F
:1000A00004081020000000080002010000030407FB
:1000B0000000000000000000C21411241FBECFEF9A
:1000C000D8E0DEBFCDBF11E0A0E0B1E0ECE9FCE29A
:1000D00002C005900D92AE33B107D9F722E0AEE32E
:1000E000B1E001C01D92A937B207E1F710E0CDE5FC
:1000F000D0E004C02197FE010E943616CC35D1070E
:10010000C9F70E94BF130C944C160C94000090E0A9
:10011000FC01EC55FF4F2491FC01E057FF4F349157
:10012000FC01E458FF4FE491EE23C9F0222339F09B
:10013000233001F1A8F4213019F1223029F1F0E047
:10014000EE0FFF1FEE58FF4FA591B4918FB7F894B3
:10015000EC91611126C030953E233C938FBF0895EA
:100160002730A9F02830C9F0243049F78091800069
:100170008F7D03C0809180008F7780938000DFCFD8
:1001800084B58F7784BDDBCF84B58F7DFBCF809125
:10019000B0008F778093B000D2CF8091B0008F7D78
:1001A000F9CF3E2BDACFCF93DF9390E0FC01E057FD
:1001B000FF4F249184589F4FFC0184918823D1F0F4
:1001C00090E0880F991FFC01E859FF4FA591B49169
:1001D000FC01EE58FF4FC591D49161110EC09FB73D
:1001E000F8948C91E22FE0958E238C932881E22362
:1001F000E8839FBFDF91CF9108958FB7F894EC917A
:10020000E22BEC938FBFF6CF0895AF92BF92CF92BF
:10021000DF92EF92FF920F931F93CF93DF936C01C6
:100220007B018B01040F151FEB015E01AE18BF08A7
:10023000C017D10759F06991D601ED91FC91019059
:10024000F081E02DC6010995892B79F7C501DF9171
:10025000CF911F910F91FF90EF90DF90CF90BF90C3
:10026000AF900895FC01538D448D252F30E0842FED
:1002700090E0821B930B541710F0CF9608950197CE
:100280000895FC01918D828D981761F0A28DAE0FBB
:10029000BF2FB11D5D968C91928D9F5F9F73928F42
:1002A00090E008958FEF9FEF0895FC01918D828D6E
:1002B000981731F0828DE80FF11D858D90E008953B
:1002C0008FEF9FEF0895FC01918D228D892F90E093
:1002D000805C9F4F821B91098F73992708958AE74D
:1002E00091E00E94630121E0892B09F420E0822F34
:1002F00008950E946F0181110C940000089580E020
:1003000090E0892B11F00C9479010895FC01A48DE3
:10031000A80FB92FB11DA35ABF4F2C91848D90E027
:1003200001968F739927848FA689B7892C93A0890A
:10033000B1898C91837080648C93938D848D981394
:1003400006C00288F389E02D80818F7D8083089527
:10035000EF92FF920F931F93CF93DF93EC0181E015
:10036000888F9B8D8C8D98131AC0E889F9898081BC
:1003700085FF15C09FB7F894EE89FF896083E889EF
:10038000F98980818370806480839FBF81E090E0E1
:10039000DF91CF911F910F91FF90EF900895F62E6E
:1003A0000B8D10E00F5F1F4F0F731127E02E8C8D08
:1003B0008E110CC00FB607FCFACFE889F98980814D
:1003C00085FFF5CFCE010E948601F1CFEB8DEC0FBA
:1003D000FD2FF11DE35AFF4FF0829FB7F8940B8F6A
:1003E000EA89FB8980818062CFCFCF93DF93EC01D4
:1003F000888D8823B9F0AA89BB89E889F9898C910D
:1004000085FD03C0808186FD0DC00FB607FCF7CFC8
:100410008C9185FFF2CF808185FFEDCFCE010E94C8
:100420008601E9CFDF91CF910895259A2D9A0895FD
:10043000FC0101900020E9F73197AF01481B590BEF
:10044000BC018AE791E00C9405018F929F92AF92D4
:10045000BF920F931F93CF93DF93CDB7DEB7A197D2
:100460000FB6F894DEBF0FBECDBF19A2423008F41C
:100470004AE08E010F5D1F4F842E912CB12CA12CD0
:10048000A50194010E941416E62FB901CA01EA30B1
:10049000F4F4E05DD801EE938D01232B242B252B62
:1004A00079F790E080E0109719F0CD010E941802D2
:1004B000A1960FB6F894DEBF0FBECDBFDF91CF91EE
:1004C0001F910F91BF90AF909F908F900895E95C1E
:1004D000E1CFCF92DF92EF92FF92CF93DF936B0148
:1004E0007C016DE28AE791E00E94A801EC01662799
:1004F0007727CB016C197D098E099F094AE00E947C
:1005000025028C0F9D1FDF91CF91FF90EF90DF9020
:10051000CF900895CF93DF931F92CDB7DEB71982A6
:10052000BE016F5F7F4F80914801909149010E9409
:100530002A06898181110E94AD080F90DF91CF9129
:100540000895CF93DF931F92CDB7DEB71982BE0116
:100550006F5F7F4F80914601909147010E942A066C
:10056000898181110E94AD080F90DF91CF9108958C
:10057000C1E0D3E48AE791E00E946301892B49F04E
:100580008AE791E00E944101813309F08FC0C09356
:10059000440170E060E080914801909149010E941F
:1005A000780C813011F48093440170E060E0809118
:1005B0004601909147010E94780C813021F41092FD
:1005C00044011092450180914401882331F1D09378
:1005D0007C0080917A00806480937A0080917A0018
:1005E00086FDFCCF00917800109179006FEF7FEFCE
:1005F00080914A0190914B010E94780C1093430125
:10060000009342010132134014F0C09345018091E0
:100610004A0190914B010E943B0B80914401882339
:1006200009F43FC00E9450062091400130914101E1
:10063000821B930B8B3B9105A0F16FEF7FEF8091B5
:100640004A0190914B010E94780C8DE191E00E944B
:1006500018026091420170914301072E000C880B33
:10066000990B97FF2BC00E94690280E291E00E94E3
:1006700018026091450170E090E080E04AE00E943D
:10068000250284E291E00E94180280914A01909133
:100690004B010E943B0B0E945006909341018093B6
:1006A000400183E090E00E94660C64CF803309F043
:1006B00070CF10924401109245016BCF4AE00E9426
:1006C0002502D3CF61E08BE00E94D30061E08CE093
:1006D0000E94D3006FEF7FEF80914A0190914B0110
:1006E0000E94780CC091450180914A0190914B0184
:1006F0000E943B0B80914401882319F161E08BE05B
:100700000E9487008FE190E00E94660C60E08BE021
:100710000E9487008FE190E00E94660CCC23D1F20A
:1007200061E08CE00E94870083E090E00E94660C0C
:1007300060E08CE00E94870083E090E00E94660CFD
:10074000C9CF60E08BE00E94870060E08CE00E94EF
:10075000870086E090E0F2CF0F931F93CF93DF9353
:10076000E0918A01F0918B0182E08083E091860123
:10077000F09187011082E0918801F09189018FEC5E
:10078000808310929201E0918E01F0918F0186E0BA
:100790008083E0918C01F0918D0180818061808364
:1007A000E0918C01F0918D01808188608083E091DF
:1007B0008C01F0918D01808180688083E0918C01B3
:1007C000F0918D0180818F7D808361E08DE00E94BA
:1007D000D30060E08DE00E94870060E082E00E942C
:1007E000D30060E083E00E94D30060E081E00E94DB
:1007F0007413EC01009739F01D821C821982188253
:100800001E820E943B0BD0934B01C0934A0160E0D3
:1008100081E00E947413909349018093480160E045
:1008200081E00E94741390934701809346018AE807
:1008300092E09093010180930001809169008C7F88
:10084000826080936900E89A81EA92E090930301C4
:100850008093020180916900837F886080936900A2
:10086000E99A10E000E022E040E850E067E271E041
:1008700088EB92E00E944C1221E040E850E06CE2EC
:1008800071E082E693E00E944C12DF91CF911F91BC
:100890000F9108951F920F920FB60F9211242F936C
:1008A0003F938F939F93AF93BF93809176019091E5
:1008B0007701A0917801B09179013091750123E021
:1008C000230F2D3758F50196A11DB11D20937501F9
:1008D0008093760190937701A0937801B09379018A
:1008E0008091710190917201A0917301B091740196
:1008F0000196A11DB11D8093710190937201A09387
:100900007301B0937401BF91AF919F918F913F910B
:100910002F910F900FBE0F901F90189526E8230F70
:100920000296A11DB11DD2CF1F920F920FB60F924A
:1009300011242F933F934F935F936F937F938F93E4
:100940009F93AF93BF93EF93FF93E0910201F091D8
:1009500003010995FF91EF91BF91AF919F918F9105
:100960007F916F915F914F913F912F910F900FBEAB
:100970000F901F9018951F920F920FB60F9211248F
:100980002F933F934F935F936F937F938F939F9397
:10099000AF93BF93EF93FF93E0910001F0910101BA
:1009A0000995FF91EF91BF91AF919F918F917F91A9
:1009B0006F915F914F913F912F910F900FBE0F90CC
:1009C0001F9018951F920F920FB60F9211242F931C
:1009D0003F934F935F936F937F938F939F93AF93C7
:1009E000BF93EF93FF938AE791E00E948601FF9106
:1009F000EF91BF91AF919F918F917F916F915F9197
:100A00004F913F912F910F900FBE0F901F9018950F
:100A10001F920F920FB60F9211242F938F939F93D3
:100A2000EF93FF93E0918A01F0918B018081E09137
:100A30009001F091910182FD1BC090818091930102
:100A40008F5F8F7320919401821741F0E0919301A1
:100A5000F0E0E658FE4F958F80939301FF91EF9160
:100A60009F918F912F910F900FBE0F901F9018950F
:100A70008081F4CFE0911902F0911A0280818111F6
:100A800007C08FEF9FEF9093700180936F010895DF
:100A9000E0911902F0911A020580F681E02D808123
:100AA0009181F1CFFC01DB010FB6F8940F924091D8
:100AB0004C0250914D022D913C9111972F3F3207DE
:100AC00011F18181928160914E027081761749F017
:100AD0004817590730F01D921C9281E00F900FBE0D
:100AE0000895481B590B42175307A8F7241B350BD1
:100AF0002D933C9380914E02808380914C02909183
:100B00004D029283818380E0E9CFCF93DF93DC01B4
:100B10001596ED91FC910680F781E02DA489B589A9
:100B20008685978520893189EC013D832C83C08996
:100B3000D1899B838A83CF010C9611962D913C918C
:100B400012972817390721F41296DC93CE93119748
:100B5000158A148A2C9121502C9320914E01211139
:100B600057C0A285B3858481958126813781EC01A8
:100B70003D832C83C681D7819B838A83CF010296D4
:100B800011962D913C9112972817390721F412964E
:100B9000DC93CE931197138612862C9121502C93BF
:100BA000C689209173022C1710F4C093730229E0B8
:100BB0002C9FE0011124C15BDD4F0980DA81C02D3B
:100BC000D583C4834C815D8157834683AC81BD81CD
:100BD00013969C938E9312979D838C83A689A29FD4
:100BE000D0011124A15BBD4FB387A2878C918F5F89
:100BF0008C93A0914A02B0914B02968956968C91A3
:100C0000891730F581E080935001DF91CF910895ED
:100C1000A0912E02B0912F02B787A68714962D912E
:100C20003C911597318B208B1496CD91DC911597C3
:100C30009B838A8315969C938E9314978DE292E002
:100C4000958B848B80912D028F5F80932D02D1CF65
:100C500080E0DBCFCF93DF93FC01928D838D9817DB
:100C6000E8F4868D9F5F928F8F3F89F4818981118F
:100C700002C081E009C0EB01CF0141960E948505C9
:100C80008823B9F381E08883DF91CF910895909113
:100C90007402891770F78F5F868FEBCF80E0F4CFF7
:100CA0000FB6F8940F9280914C0290914D020F90E4
:100CB0000FBE089580914E018F5F80934E0108957D
:100CC0000FB6F8940F92FC01928D0F900FBE81E049
:100CD000911180E00895EF92FF920F931F93CF93AD
:100CE000DF93EC010FB6F8940F921E8D7C0181E129
:100CF000E80EF11C01E01116D4F08FEF8E8F0F90EB
:100D00000FBE0FB6F8940F921D8D7E0188E0E80E9D
:100D1000F11C01E01116B4F08FEF8D8F0F900FBE14
:100D2000DF91CF911F910F91FF90EF9008958989E6
:100D3000882319F3C7010E94850581110093500192
:100D40001150D9CF8885882339F3C7010E948505C2
:100D50008111009350011150DDCFCF93DF93FC013F
:100D6000A085B1858281938124813581EC013D8309
:100D70002C83C481D5819B838A8311968D919C910C
:100D800012978E179F0721F41296DC93CE9311973A
:100D9000118610868C9181508C93DF91CF910895AC
:100DA0000F931F93CF93DF938C01FB01808191817F
:100DB000D80113968F3F9807F1F4E801AF81B88509
:100DC00012968D919C91139793838283EC01FD83FE
:100DD000EC83B583A4831396FC93EE93129711874B
:100DE0000087F80180818F5F8083DF91CF911F9111
:100DF0000F910895D90112962D913C911397E90115
:100E00004881598184179507A8F7DACFFC017383CD
:100E10006283918780874617570790F0421B530BD8
:100E20008485958548175907C8F4BF016E5F7F4FC9
:100E300080915501909156010E94D00680E008955E
:100E40004217530718F46217730740F4BF016E5F2F
:100E50007F4F8091570190915801EECF81E0089526
:100E6000EF92FF920F931F93CF93DF93EC018B01CF
:100E70007A016C857D85600F711F9801A701CE01F5
:100E80000E940607811107C0DF91CF911F910F913A
:100E9000FF90EF9008958C859D85080F191FE889B4
:100EA000F989CE010995E5CFEF92FF920F931F9339
:100EB000CF93DF938C017B01E0915701F0915801B2
:100EC0000580F681E02DC681D781CE0102960E9471
:100ED000AD068A8982FF0FC0A701B801CE010E942A
:100EE0003007E889F989CE01DF91CF911F910F91E9
:100EF000FF90EF9009948E7F8A8BF3CFE09157019A
:100F0000F0915801808181110DC08091550190911F
:100F100056019093580180935701F0935601E09346
:100F2000550108950580F681E02D6FEF7FEF8081F8
:100F300091810E945407E2CFBF92CF92DF92EF924D
:100F4000FF920F931F93CF93DF93EC01B62EC090C7
:100F50004C02D0904D020091190210911A02E090BB
:100F60001702F090180280914A0290914B0202966B
:100F70000E94AD06CF3FDC0709F042C0BB2009F458
:100F80003FC0E0911C02F0911D02A0914A02B09175
:100F90004B021596FC93EE931497A0914A02B091E0
:100FA0004B028481958117969C938E93169780911E
:100FB0004A0290914B02A481B581029613969C93AC
:100FC0008E93129780914A0290914B0202969583DC
:100FD0008483E0914A02F0914B028BE192E0938787
:100FE000828780911B028F5F80931B02DF91CF91DC
:100FF0001F910F91FF90EF90DF90CF90BF900895D9
:10100000CC0DDD1DE0914A02F0914B02D383C283E7
:1010100060914A0270914B026E5F7F4FCC15DD05E7
:1010200060F4C701DF91CF911F910F91FF90EF9076
:10103000DF90CF90BF900C94D006C8010E94D006DC
:1010400080916F0190917001C817D90778F6D093FD
:101050007001C0936F01CACFCF93DF93EB01609112
:101060004A0270914B02645F7F4F0E94D00661E09C
:10107000CE01DF91CF910C949C07FC0103969283E3
:1010800081832FEF3FEF348323839683858390877B
:1010900087831082089510925001A0914A02B09166
:1010A0004B02E0914A02F0914B022D913C918789CD
:1010B000908D82179307A8F080914A0290914B027D
:1010C00080914A0290914B020E9415022FEF87EA0D
:1010D00091E6215080409040E1F700C000001D9A49
:1010E000F5CF2091730289E0422F50E0849FF001F8
:1010F000859FF00D1124E15BFD4F9081992359F1FB
:10110000A181B28112966D917C9172836183289F37
:10111000C00111248E5A9D4F6817790721F48581EB
:1011200096819283818389E0849FF001859FF00DF1
:101130001124E15BFD4F0180F281E02D86819781D2
:1011400090934B0280934A022093730280914A024B
:1011500090914B0208952150C7CF0F920FB6F8948B
:101160000F921F9211242F923F924F925F926F9293
:101170007F928F929F92AF92BF92CF92DF92EF9227
:10118000FF920F931F932F933F934F935F936F9310
:101190007F938F939F93AF93BF93CF93DF93EF93FF
:1011A000FF93A0914A02B0914B020DB60D920EB67C
:1011B0000D9280914E01882321F081E080935001AF
:1011C00002C00E944B08A0914A02B0914B02CD91FF
:1011D000CDBFDD91DEBFFF91EF91DF91CF91BF9148
:1011E000AF919F918F917F916F915F914F913F91BF
:1011F0002F911F910F91FF90EF90DF90CF90BF90B4
:10120000AF909F908F907F906F905F904F903F90A6
:101210002F901F900F900FBE0F9018950F920FB642
:10122000F8940F921F9211242F923F924F925F9247
:101230006F927F928F929F92AF92BF92CF92DF92E6
:10124000EF92FF920F931F932F933F934F935F93D0
:101250006F937F938F939F93AF93BF93CF93DF93BE
:10126000EF93FF93A0914A02B0914B020DB60D92FD
:101270000EB60D9280914E01882321F081E080937B
:10128000500102C00E944B08A0914A02B0914B024B
:10129000CD91CDBFDD91DEBFFF91EF91DF91CF9179
:1012A000BF91AF919F918F917F916F915F914F917E
:1012B0003F912F911F910F91FF90EF90DF90CF9072
:1012C000BF90AF909F908F907F906F905F904F9066
:1012D0003F902F901F900F900FBE0F9008958F9208
:1012E0009F92BF92CF92DF92EF92FF920F931F9344
:1012F000CF93DF930FB6F8940F9280914E018150F7
:1013000080934E0180914E01882379F080E00F9008
:101310000FBEDF91CF911F910F91FF90EF90DF9063
:10132000CF90BF909F908F900895809174028823F2
:1013300069F3E0903202F0903302F0E0E0E039E04F
:1013400041E080912D0281115EC0EF2B11F00E94CF
:101350003A05E0904C01F0904D01E114F10409F4DC
:101360007DC189E0D82ECC24C3940FEF1FEF80916C
:101370004E01811161C1C0914C02D0914D024E01CC
:101380008FEF881A980A90924D0280924C02811435
:101390009104B9F48091190290911A0220911702D8
:1013A0003091180230931A02209319029093180278
:1013B0008093170280914E028F5F80934E020E94AD
:1013C0003A0580916F0190917001B12C88169906B1
:1013D00008F026C1E0914A02F0914B02E689DE9EB8
:1013E000F0011124E15BFD4F8081823010F0BB24BD
:1013F000B39480915001811103C0BB2009F425C131
:10140000C092500122C1D7011696ED91FC91A4899A
:10141000B5896685778580899189EB019D838C8369
:1014200080899189EC017B836A83BF01645F7F4F70
:1014300011960D911C9112970617170721F4129619
:101440009C938E931197158A148A8C9181508C935A
:10145000A285B3858481958166817781EC017D8346
:101460006C8366817781EB019B838A83CF0102962F
:1014700011960D911C9112970817190721F41296D5
:101480007C936E931197138612862C9121502C9386
:10149000A689209173022A1710F4A09373023A9F31
:1014A000D0011124A15BBD4F11960D90BC91A02DD0
:1014B000B583A48314966D917C9115977783668389
:1014C00014966D917C911597EB019B838A831596F9
:1014D0009C938E9314979689939FD0011124A15BBE
:1014E000BD4FB387A2878C918F5F8C93A0914A02E6
:1014F000B0914B0256968C91891708F022CF4093F9
:1015000050011FCFE0911902F0911A020580F68177
:10151000E02D0680F781E02D82819381881699065F
:1015200028F49093700180936F0154CFC285D385C6
:101530008481958126813781DC0115963C932E9319
:10154000149726813781D90113969C938E93129715
:10155000CF01029649815A814817590711F43A83FD
:10156000298313861286288121502883A489B5896E
:101570001097F9F02685378540895189E9015D8307
:101580004C8340895189EA013B832A8311966D91EE
:101590007C9112979F01245F3F4F6217730721F4DC
:1015A00012965C934E931197158A148A2C912150B0
:1015B0002C93A689209173022A1710F4A09373022A
:1015C000DA9ED0011124A15BBD4F11960D90BC9104
:1015D000A02DB583A48314962D913C911597378344
:1015E000268314962D913C911597E9019B838A835C
:1015F00015969C938E93149796899D9DD0011124E6
:10160000A15BBD4FB387A2878C918F5F8C93E091D4
:101610004A02F0914B028689891710F4BB24B394D7
:10162000E0911902F0911A02808181116BCF109321
:10163000700100936F01CECE80914C0190914D01CD
:10164000019690934D0180934C01D1E0ED1AF10881
:1016500009F08DCE10924D0110924C0180915001F5
:10166000882309F453CE80914A0290914B020E9444
:101670000E0981E04CCEAF92BF92DF92EF92FF92C3
:101680000F931F93CF93DF9300D000D01F92CDB75D
:10169000DEB78C011D821C8280E0780198E0E90EA3
:1016A000F11C0FB6F8940F92D8015A962C915A97C4
:1016B0005B969C915B97291708F0B0C05A96DC9016
:1016C0005A975C964C915C9741118CC08D919C917E
:1016D000892B11F080E00AC0F801E480F580E11464
:1016E000F10431F580E0F80115821482D394D80119
:1016F0005A96DC925A9751969C91992321F0C801F1
:1017000041960E94850581110E940E090F900FBE1F
:1017100081E00F900F900F900F900F90DF91CF917D
:101720001F910F91FF90EF90DF90BF90AF900895C1
:10173000D7019A968C919A9781509A968C939A9702
:1017400056962C91569799969C91291759F281118A
:10175000C9CF5701B2E0AB0EB11CC5010E94AD0666
:10176000F70181A5868B482F50E024E030E0241B50
:10177000350B3587248790917302981710F4809366
:10178000730289E0849FD001859FB00D1124A15B75
:10179000BD4F11960D90BC91A02DF701B583A48388
:1017A00014962D913C911597378326831496ED91CD
:1017B000FC911597B382A2821596BC92AE921497B3
:1017C000D7015696EC915697E89FF0011124E15B02
:1017D000FD4F1B96FC93EE931A9780818F5F808359
:1017E00081E081CF50E070E060E012968D919C9195
:1017F0000E943C16F801848D22813381820F932F41
:10180000911D93838283248135818217930708F485
:1018100061CF80819181938382835CCF2C813D81D4
:10182000232B21F40F900FBE80E073CF811109C0EC
:1018300080914E02898380914C0290914D029B834E
:101840008A830F900FBE0E945A060FB6F8940F922B
:10185000F801858D8F3F09F4158ED8015E968C9125
:101860005E978F3F11F45E961C920F900FBEBE01E3
:101870006C5F7F4FCE0101960E945205811120C0FE
:101880000FB6F8940F92F801928D838D0F900FBED2
:10189000981310C06C817D81C7010E942C08C8017B
:1018A0000E946B060E946F09811102C00E940E09FE
:1018B00081E0F7CEC8010E946B060E946F09F8CF45
:1018C000C8010E946B060E946F09AECFCF93DF93D1
:1018D000EC010E945A0660E0CE010E949C070E9423
:1018E0006F09811102C00E940E09DF91CF91089506
:1018F0007F928F929F92AF92BF92CF92DF92EF92A0
:10190000FF920F931F93CF93DF9300D000D01F92CD
:10191000CDB7DEB78C017D836C83D12C90E058016C
:1019200021E1A20EB11C89E0782E24E0822E912CB8
:101930000FB6F8940F92D8015A968C915A97882333
:10194000C9F181505A968C935A978D919C91892B0D
:1019500071F4E0914A02F0914B02309719F082A5A0
:101960008F5F82A7D8011596FC93EE931497F80128
:101970008085882339F0C80108960E948505811169
:101980000E940E090F900FBEDD24D3948D2D0F9071
:101990000F900F900F900F90DF91CF911F910F91AB
:1019A000FF90EF90DF90CF90BF90AF909F908F907F
:1019B0007F9008952C813D81232B21F40F900FBE41
:1019C000D12CE4CF911109C080914E02898380917E
:1019D0004C0290914D029B838A830F900FBE0E9410
:1019E0005A060FB6F8940F92D8015D968C915D97C8
:1019F0008F3F11F45D961C92F801868D8F3F09F49C
:101A0000168E0F900FBEBE016C5F7F4FCE01019608
:101A10000E9452058111AFC0C8010E946006882350
:101A200009F4A3C0D8018D919C91892B09F078C04D
:101A30000FB6F8940F92F801E480F580E114F104F8
:101A400009F491C0D70156968C915697E0914A02BD
:101A5000F0914B029689891708F07AC01C962D9157
:101A60003C911D9737FD0CC0E0914A02F0914B026A
:101A700096899401291B31091D963C932E931C973E
:101A8000879DC0011124815B9D4FF701228533851D
:101A90002817390709F054C06701F2E0CF0ED11CB6
:101AA000C6010E94AD06E0914A02F0914B02E68920
:101AB000D7015696EC93809173028E1710F4E09341
:101AC00073027E9EF0011124E15BFD4F0180F281E3
:101AD000E02DD7011596FC93EE93149784819581A0
:101AE00017969C938E931697A481B5811396DC92DA
:101AF000CE921297D582C482D7015696EC91569712
:101B0000E79DF0011124E15BFD4F1B96FC93EE93E2
:101B10001A9780818F5F8083DD24D3940F900FBE4E
:101B20006C817D81C5010E942C08C8010E946B0652
:101B30000E946F09811102C00E940E0991E0F8CE47
:101B4000E0914A02F0914B028689F701868BE4CF3F
:101B5000E0914A02F0914B02DD24D39499969C9136
:101B600086899817D8F2D12CD9CFC8010E946B066C
:101B70000E946F09E3CFC8010E946B060E946F09A3
:101B8000C8010E9460068823C9F2DD2009F4FECE58
:101B90000FB6F8940F92F8018189882309F47BC06D
:101BA0000688F789E02D908184E0891BD80114967E
:101BB0000D911C910115110509F400CFF80191A5B3
:101BC000981708F4982FD80156968C915697981725
:101BD00009F4F4CE9A962C919A97213009F0EECE22
:101BE00056969C9356971C962D913C911D9737FDC8
:101BF00008C024E030E0291B31091D963C932E9348
:101C00001C97B9E08B9FC0011124815B9D4FF801A7
:101C1000228533852817390709F0D0CE7801F2E004
:101C2000EF0EF11CC7010E94AD06F801A689809154
:101C300073028A1710F4A093730289E08A9FD0017F
:101C40001124A15BBD4F11960D90BC91A02DF80100
:101C5000B583A48314962D913C91159737832683E1
:101C60001496ED91FC911597F382E2821596FC9201
:101C7000EE921497D8015696EC915697E89FF00192
:101C80001124E15BFD4F1B96FC93EE931A97808124
:101C90008F5F808393CE80E089CF0F920FB6F89448
:101CA0000F921F9211242F923F924F925F926F9248
:101CB0007F928F929F92AF92BF92CF92DF92EF92DC
:101CC000FF920F931F932F933F934F935F936F93C5
:101CD0007F938F939F93AF93BF93CF93DF93EF93B4
:101CE000FF93A0914A02B0914B020DB60D920EB631
:101CF0000D9213BE80914E018111F9C080914C026A
:101D000090914D02019690934D0280934C02009762
:101D100081F52091190230911A02409117025091D9
:101D2000180250931A02409319023093180220931C
:101D3000170220914E022F5F20934E02E09119026C
:101D4000F0911A022081211107C02FEF3FEF30934D
:101D5000700120936F010DC0E0911902F0911A02F9
:101D60000580F681E02D2081318130937001209330
:101D70006F0120916F01309170018217930710F469
:101D800020E0A1C020E039E0D32EE0911902F091CB
:101D90001A023081311107C08FEF9FEF90937001CD
:101DA00080936F0190C0E0911902F0911A020580B2
:101DB000F681E02D0680F781E02D42815381841762
:101DC000950728F45093700140936F017CC0A28561
:101DD000B3854481558166817781EA017D836C8377
:101DE00066817781EB015B834A83AF014E5F5F4F72
:101DF00011960D911C9112970417150721F4129654
:101E00007C936E931197138612863C9131503C93CC
:101E1000A489B5891097F9F06685778500891189BD
:101E2000EB011D830C8300891189E8017B836A83A0
:101E30001196ED90FC901297BF01645F7F4FE616FC
:101E4000F70621F412961C930E931197158A148AA3
:101E50003C9131503C93A689309173023A1710F4AB
:101E6000A0937302DA9ED0011124A15BBD4F11969D
:101E70000D90BC91A02DB583A48314966D917C9197
:101E800015977783668314966D917C911597EB0176
:101E90005B834A8315965C934E93149746894D9DB8
:101EA000D0011124A15BBD4FB387A2873C913F5F56
:101EB0003C93E0914A02F0914B023689341708F0C6
:101EC00064CF21E062CFE0914A02F0914B02E689B3
:101ED000D9E0ED9FF0011124E15BFD4F808182305C
:101EE00008F021E08091500181110EC00AC080915C
:101EF0004C0190914D01019690934D0180934C01BE
:101F00006CC0222309F469C080914E01882321F01E
:101F100081E08093500161C010925001A0914A026B
:101F2000B0914B02E0914A02F0914B022D913C910D
:101F30008789908D82179307A8F080914A0290912B
:101F40004B0280914A0290914B02259A2D9A2FEFD5
:101F500087EA91E6215080409040E1F700C0000000
:101F60001D9AF5CF2091730289E001C02150422FC4
:101F700050E0849FF001859FF00D1124E15BFD4F3F
:101F80009081992399F3A181B28112966D917C91F0
:101F900072836183289FC00111248E5A9D4F681758
:101FA000790721F4858196819283818389E0849FDA
:101FB000F001859FF00D1124E15BFD4F0180F2815E
:101FC000E02D8681978190934B0280934A02209363
:101FD000730280914A0290914B02A0914A02B09103
:101FE0004B02CD91CDBFDD91DEBFFF91EF91DF912F
:101FF000CF91BF91AF919F918F917F916F915F91A1
:102000004F913F912F911F910F91FF90EF90DF9093
:10201000CF90BF90AF909F908F907F906F905F9088
:102020004F903F902F901F900F900FBE0F900895EC
:10203000CF93DF93009751F0EC010E945A06CE0136
:102040000E948B15DF91CF910C946F09DF91CF9196
:102050000895CF93DF93CDB7DEB72A970FB6F894E4
:10206000DEBF0FBECDBF85E0B82ECE0101967C014C
:10207000E0915701F09158011081D12CC12C11230E
:1020800029F00580F681E02DC080D1800E945A069B
:102090000E9450064C018091510190915201881686
:1020A000990608F090C00E947E079092520180929B
:1020B00051010E946F09D701EB2D1D92EA95E9F7B6
:1020C00000916D0110916E011A86198680E0480119
:1020D000F1E18F0E911C0FB6F8940F92D8015A9629
:1020E000DC905A97DD2009F42FC15C964C915C97E7
:1020F0004423F9F050E016968D919C911797840F28
:10210000951F17969C938E93169714962D913C913C
:1021100015978217930738F08D919C911197179618
:102120009C938E931697F80166817781C7010E9470
:102130003C16DA94D8015A96DC925A9718968C91EC
:10214000882339F0C80108960E94850581110E94F4
:102150000E090F900FBEA980A7FCB2CF0C811D8184
:10216000D8011A968D919C91892B21F0C801029675
:102170000E94AD060E9450066C0180915101909121
:102180005201C816D90610F40E947E07D09252015F
:10219000C0925101EFEFEA0DE93008F091CF0E2E19
:1021A000000CFF0BE652FF4ED80152968C915297CD
:1021B0000C9436165D115D11A01188119A115D11F4
:1021C0005D11A0118811909252018092510111234A
:1021D00051F08C149D0470F00E946F09B401C60187
:1021E0000E94540768CFE0915501F091560161E0DB
:1021F0008081811160E000916D0110916E010FB638
:10220000F8940F92D8015D968C915D978F3F11F4F1
:102210005D961C92F801868D8F3F09F4168E0F9003
:102220000FBED8015A968C915A9781113CC0529694
:10223000ED91FC91A0914A02B0914B021F96FC9344
:10224000EE931E97A0914A02B0914B028481958132
:1022500051969C938E93509780914A0290914B0295
:10226000A481B5810C9613969C938E9312978091BE
:102270004A0290914B020C9695838483E0914A0226
:10228000F0914B02C8014196958B848BF8018189AE
:102290008F5F818BC60188199909662311F08FEF32
:1022A0009FEF0E949C07C8010E946B060E946F0965
:1022B000811101CF0E940E09FECE8160F801828B50
:1022C0008A809B8064857585680D791D9401A601BF
:1022D000C8010E940607882309F4F2CED80152965D
:1022E0008C91529782FF10C01C966D917C91680D65
:1022F000791DA601C8010E943007D8015096ED91C2
:10230000FC91C8010995DCCE8E7FF801828BF5CF58
:10231000816052968C9352976A817B811D967C9343
:102320006E931C976C0D7D1D9601A601C8010E943D
:102330000607C6CE81FD04C0C8010E941810C0CE99
:102340008E7FF801828BBCCE29853A85232B19F428
:102350000F900FBE8DCE811109C080914E028E83E9
:1023600080914C0290914D0298878F830F900FBE01
:102370000E945A060FB6F8940F92F801858D8F3F90
:1023800009F4158ED8015E968C915E978F3F11F4FB
:102390005E961C920F900FBEBE01675F7F4FCE010D
:1023A00006960E94520581111BC0C8010E9460065A
:1023B000882381F069857A85C4010E942C08C801B0
:1023C0000E946B060E946F09811102C00E940E09D3
:1023D00081E081CEC8010E946B060E946F09F8CF90
:1023E000C8010E946B060E946F09C8010E94600626
:1023F000882371F33DCE00E010E080914F01811100
:102400000CC080914F02823010F00E940E0901151D
:10241000110599F30E947901F0CF0FB6F8940F924D
:10242000E0912902F0912A02C681D781CE0102965D
:102430000E94AD0680917402815080937402809155
:102440004F01815080934F010F900FBE8F89988D5F
:102450000E941810CE010E941810CFCFCF93DF93A7
:10246000EC010E945A06CE010E94EF14EC010E947A
:102470006F09209769F40E9415022FEF80E792E020
:10248000215080409040E1F700C000001D9AF5CF38
:10249000CE01DF91CF9108957F928F929F92AF925C
:1024A000BF92CF92DF92EF92FF920F931F93CF9341
:1024B000DF93982EA92E762E872E7A01B22ECA018E
:1024C0000E942E126C01892B09F4EDC080E390E08C
:1024D0000E942E12EC01892B09F4E2C080E3DE0198
:1024E0001D928A95E9F7D88ECF8AA70165EA70E038
:1024F000C6010E944516B1E0EB1AF108EF89F88D8C
:10250000EE0DFF1D672D782DCE0149969B01205FB2
:102510003F4FDB014D91BD01DC014D93CD01AB017E
:1025200041505109DA014C91442319F0261737071D
:1025300081F718A6BE8AB9A61B861A861D8A1C8A30
:10254000D987C88784E090E08B1991099D878C8793
:10255000DB8BCA8B9082DF011197AC9211971C9292
:10256000119780E88C9311971C9257971C921197A2
:102570001C92B397F983E8830115110519F0F8014E
:10258000D183C0830FB6F8940F92809174028F5F4D
:102590008093740280914A0290914B02892B09F03A
:1025A00091C0D0934B02C0934A0280917402813053
:1025B00081F58FE492E00E943D0888E592E00E9458
:1025C0003D0881E692E00E943D088AE692E00E9482
:1025D0003D088FE392E00E943D0886E392E00E946E
:1025E0003D088DE292E00E943D0884E292E00E9464
:1025F0003D088BE192E00E943D088FE392E09093CA
:102600001A028093190286E392E090931802809355
:102610001702809148028F5F80934802AE898091B3
:1026200073028A1710F4A093730229E02A9FD00145
:102630001124A15BBD4F11960D90BC91A02DBD83BF
:10264000AC8314968D919C9115979F838E831496DD
:10265000ED91FC911597CE01029693838283159696
:102660009C938E931497EE89E29FF0011124E15B15
:10267000FD4FFB87EA8780818F5F80830F900FBEBD
:1026800080914902882351F0E0914A02F0914B0277
:1026900096898E89981710F40E940E0981E004C073
:1026A000C6010E9418108FEFDF91CF911F910F91FB
:1026B000FF90EF90DF90CF90BF90AF909F908F9062
:1026C0007F900895809149028111A3CFE0914A0241
:1026D000F0914B0296898E89891708F49ACFD0938E
:1026E0004B02C0934A0295CF0F931F93CF93DF9372
:1026F000082F162F689FC00111244F960E942E129A
:10270000EC01009779F1111133C0998388830B8F05
:102710001C8F0FB6F8940F92888199812B8D4C8D68
:10272000BC01249F600D711D11247D836C831A8E62
:102730009B838A832150330B429FB001439F700DCE
:102740001124860F971F9F838E838FEF8D8F8E8F1F
:10275000CE0108960E943D08CE0141960E943D0898
:102760000F900FBECE01DF91CF911F910F91089571
:102770004F9699838883CBCF0E944D0E1895CF93A7
:10278000DF93CDB7DEB760970FB6F894DEBF0FBE0C
:10279000CDBF789484B5826084BD84B5816084BDEA
:1027A00085B5826085BD85B5816085BD80916E00EF
:1027B000816080936E001092810080918100826020
:1027C000809381008091810081608093810080915D
:1027D00080008160809380008091B100846080934C
:1027E000B1008091B00081608093B00080917A0048
:1027F000846080937A0080917A00826080937A006E
:1028000080917A00816080937A0080917A0080685C
:1028100080937A001092C1002091090130910A0141
:102820008FEF98E0821B930B909306018093050134
:102830000E94AC03A1E3B1E0FE01319621E431E056
:10284000BF018D918193882319F02A173B07C9F79F
:1028500003E511E020E040EC50E08BEF91E10E94B5
:102860004C12882309F482C0813009F07FC00FB672
:10287000F8940F9280916D0190916E01892BE1F493
:1028800082E691E00E943D0889E591E00E943D08C2
:1028900082E691E0909358018093570189E591E099
:1028A000909356018093550165E08AE00E9474136D
:1028B00090936E0180936D010F900FBE80916D011A
:1028C00090916E01892B09F451C00BE611E023E0D1
:1028D0004CE550E066E371E089E290E10E944C1221
:1028E000813009F043C0F8942FEF3FEF309370012F
:1028F00020936F018093490210924D0210924C0276
:10290000A89588E190EC0FB6F894A89580936000A4
:102910000FBE90936000A0914A02B0914B02CD91FE
:10292000CDBFDD91DEBFFF91EF91DF91CF91BF91E0
:10293000AF919F918F917F916F915F914F913F9157
:102940002F911F910F91FF90EF90DF90CF90BF904C
:10295000AF909F908F907F906F905F904F903F903F
:102960002F901F900F900FBE0F900895809104013B
:102970000E94AC0300E010E001151105E9F30E948C
:102980007901FACFEAE7F1E01382128288EE93E050
:10299000A0E0B0E084839583A683B7838FE091E0C5
:1029A0009183808385EC90E09587848784EC90E028
:1029B0009787868780EC90E0918B808B81EC90E00C
:1029C000938B828B82EC90E0958B848B86EC90E0ED
:1029D000978B868B118E128E138E148E08950F9303
:1029E0001F93CF93DF938230910510F482E090E043
:1029F000E0917702F091780230E020E0B0E0A0E0D2
:102A0000309799F42115310509F44AC0281B390B78
:102A100024303105D8F58A819B816115710589F1D2
:102A2000FB0193838283FE0111C0408151810281A9
:102A3000138148175907E0F04817590799F4109780
:102A400061F012960C93129713961C933296CF0155
:102A5000DF91CF911F910F9108950093770210930A
:102A60007802F4CF2115310551F04217530738F0A1
:102A7000A901DB019A01BD01DF01F801C1CFEF011E
:102A8000F9CF9093780280937702CDCFFE01E20FC9
:102A9000F31F819391932250310939832883D7CF33
:102AA0002091750230917602232B41F42091070189
:102AB0003091080130937602209375022091050130
:102AC000309106012115310541F42DB73EB74091F3
:102AD000090150910A01241B350BE0917502F09118
:102AE0007602E217F307A0F42E1B3F0B28173907D5
:102AF00078F0AC014E5F5F4F2417350748F04E0F5A
:102B00005F1F5093760240937502819391939FCFFC
:102B1000F0E0E0E09CCFCF93DF930097E9F0FC0179
:102B2000329713821282A0917702B0917802ED0160
:102B300030E020E01097A1F420813181820F931FB3
:102B400020917502309176022817390709F061C08B
:102B5000F0937602E0937502DF91CF910895EA0138
:102B6000CE17DF07E8F54A815B819E0141155105CB
:102B7000B1F7E901FB83EA8349915991C40FD51F4D
:102B8000EC17FD0761F4808191810296840F951FF7
:102B9000E90199838883828193819B838A83F0E012
:102BA000E0E012968D919C9113970097B9F52D91C5
:102BB0003C911197CD010296820F931F20917502CF
:102BC000309176022817390739F6309751F510926F
:102BD000780210927702B0937602A0937502BCCF70
:102BE000D383C28340815181840F951FC817D907B1
:102BF00061F44E5F5F4F88819981480F591F51835F
:102C000040838A819B81938382832115310509F05A
:102C1000B0CFF0937802E09377029ECFFD01DC0104
:102C2000C0CF13821282D7CFA1E21A2EAA1BBB1BE0
:102C3000FD010DC0AA1FBB1FEE1FFF1FA217B30788
:102C4000E407F50720F0A21BB30BE40BF50B661F9E
:102C5000771F881F991F1A9469F760957095809562
:102C600090959B01AC01BD01CF010895EE0FFF1FB0
:102C70000590F491E02D0994FB01DC0102C0019064
:102C80000D9241505040D8F70895DC0101C06D937A
:102C900041505040E0F70895F894FFCF040104013B
:102CA0000300007902800000000000A80105013245
:102CB00001F5016301410155014C3A002C413A00F4
:102CC0000D0A004D61696E004C6564730049444C07
:0A2CD0004500546D72205376630036
:107E0000112484B714BE81FFF0D085E080938100F7
:107E100082E08093C00088E18093C10086E0809377
:107E2000C20080E18093C4008EE0C9D0259A86E02C
:107E300020E33CEF91E0309385002093840096BBD3
:107E4000B09BFECF1D9AA8958150A9F7CC24DD24C4
:107E500088248394B5E0AB2EA1E19A2EF3E0BF2EE7
:107E6000A2D0813461F49FD0082FAFD0023811F036
:107E7000013811F484E001C083E08DD089C08234E0
:107E800011F484E103C0853419F485E0A6D080C0E4
:107E9000853579F488D0E82EFF2485D0082F10E0AE
:107EA000102F00270E291F29000F111F8ED06801E7
:107EB0006FC0863521F484E090D080E0DECF843638
:107EC00009F040C070D06FD0082F6DD080E0C81688
:107ED00080E7D80618F4F601B7BEE895C0E0D1E017
:107EE00062D089930C17E1F7F0E0CF16F0E7DF06D8
:107EF00018F0F601B7BEE89568D007B600FCFDCFD4
:107F0000A601A0E0B1E02C9130E011968C91119780
:107F100090E0982F8827822B932B1296FA010C0160
:107F200087BEE89511244E5F5F4FF1E0A038BF0790
:107F300051F7F601A7BEE89507B600FCFDCF97BE46
:107F4000E89526C08437B1F42ED02DD0F82E2BD052
:107F50003CD0F601EF2C8F010F5F1F4F84911BD097
:107F6000EA94F801C1F70894C11CD11CFA94CF0C13
:107F7000D11C0EC0853739F428D08EE10CD085E9AC
:107F80000AD08FE07ACF813511F488E018D01DD067
:107F900080E101D065CF982F8091C00085FFFCCF94
:107FA0009093C60008958091C00087FFFCCF809118
:107FB000C00084FD01C0A8958091C6000895E0E648
:107FC000F0E098E1908380830895EDDF803219F02E
:107FD00088E0F5DFFFCF84E1DECF1F93182FE3DFCA
:107FE0001150E9F7F2DF1F91089580E0E8DFEE27F6
:047FF000FF270994CA
:027FFE00040479
:00000001FF
