:100000000C9462000C948A000C948A000C948A0070
:100010000C948A000C948A000C945D120C948A0053
:100020000C948A000C948A000C948A000C948A0028
:100030000C948A000C948A000C948A000C948A0018
:100040000C94D9030C948A000C9449040C94230456
:100050000C948A000C948A000C948A000C948A00F8
:100060000C948A000C948A000000000024002700F1
:100070002A000000000023002600290000000000E4
:10008000250028002B0004040404040404040202D4
:100090000202020203030303030301020408102007
:1000A0004080010204081020010204081020000012
:1000B0000008000201000003040700000000000027
:1000C0000000701311241FBECFEFD8E0DEBFCDBFFC
:1000D00011E0A0E0B1E0E8EFF9E202C005900D9276
:1000E000A035B107D9F722E0A0E5B1E001C01D922B
:1000F000A438B207E1F710E0C2E6D0E004C02197CF
:10010000FE010E94E414C136D107C9F70E946012B3
:100110000C94FA140C940000833081F028F48130A0
:1001200099F08230A9F008958730A9F08830C9F09D
:100130008430B1F4809180008F7D03C08091800075
:100140008F7780938000089584B58F7784BD08955C
:1001500084B58F7DFBCF8091B0008F778093B00006
:1001600008958091B0008F7DF9CF1F93CF93DF93D7
:10017000E9EBF0E09491E5EAF0E0D491E1E9F0E018
:10018000C491CC23B9F0182F992319F0892F0E941C
:100190008C00EC2FF0E0EE0FFF1FE458FF4FA5910D
:1001A000B4918FB7F894EC91111108C0D095DE236B
:1001B000DC938FBFDF91CF911F910895DE2BF8CF95
:1001C000CF93DF93282F30E0F901E255FF4F849160
:1001D000F901E656FF4FD491F901EA57FF4FC49158
:1001E000CC23A1F081110E948C00EC2FF0E0EE0FE7
:1001F000FF1FEE58FF4FA591B491EC91ED2381E0E4
:1002000090E009F480E0DF91CF91089580E090E0E4
:10021000FACFCF93DF9390E0FC01E656FF4F249195
:100220008A579F4FFC0184918823D1F090E0880F7A
:10023000991FFC01E859FF4FA591B491FC01E458C6
:10024000FF4FC591D49161110EC09FB7F8948C9166
:10025000E22FE0958E238C932881E223E8839FBFD1
:10026000DF91CF9108958FB7F894EC91E22BEC9346
:100270008FBFF6CFAF92BF92CF92DF92EF92FF92F5
:100280000F931F93CF93DF936C017B018B01040FBE
:10029000151FEB015E01AE18BF08C017D10759F05A
:1002A0006991D601ED91FC910190F081E02DC6019C
:1002B0000995892B79F7C501DF91CF911F910F9196
:1002C000FF90EF90DF90CF90BF90AF900895FC012A
:1002D000538D448D252F30E0842F90E0821B930BAB
:1002E000541710F0CF96089501970895FC01918D51
:1002F000828D981761F0A28DAE0FBF2FB11D5D9654
:100300008C91928D9F5F9F73928F90E008958FEFF5
:100310009FEF0895FC01918D828D981731F0828DA9
:10032000E80FF11D858D90E008958FEF9FEF089500
:10033000FC01918D228D892F90E0805C9F4F821B64
:1003400091098F73992708958EE591E00E94980195
:1003500021E0892B09F420E0822F08950E94A40156
:1003600081110C940000089580E090E0892B11F039
:100370000C94AE010895FC01A48DA80FB92FB11DF6
:10038000A35ABF4F2C91848D90E001968F739927CB
:10039000848FA689B7892C93A089B1898C918370A9
:1003A00080648C93938D848D981306C00288F389A2
:1003B000E02D80818F7D80830895EF92FF920F93CF
:1003C0001F93CF93DF93EC0181E0888F9B8D8C8D01
:1003D00098131AC0E889F989808185FF15C09FB7F5
:1003E000F894EE89FF896083E889F98980818370B8
:1003F000806480839FBF81E090E0DF91CF911F9167
:100400000F91FF90EF900895F62E0B8D10E00F5F87
:100410001F4F0F731127E02E8C8D8E110CC00FB65D
:1004200007FCFACFE889F989808185FFF5CFCE01F5
:100430000E94BB01F1CFEB8DEC0FFD2FF11DE35AB4
:10044000FF4FF0829FB7F8940B8FEA89FB89808178
:100450008062CFCFCF93DF93EC01888D8823B9F0F2
:10046000AA89BB89E889F9898C9185FD03C08081BF
:1004700086FD0DC00FB607FCF7CF8C9185FFF2CF3C
:10048000808185FFEDCFCE010E94BB01E9CFDF91D6
:10049000CF910895C3E4809154018823F9F0C0936B
:1004A0007C0080917A00806480937A0080917A0049
:1004B00086FDFCCF00917800109179008091550164
:1004C000909156010E944D0B1093530100935201DD
:1004D00080915501909156010E94220A82E190E09C
:1004E0000E94240DD8CF60E082E00E94090160E004
:1004F00083E00E94090110E0C0E0DD24D39482E093
:100500000E94E0007C01D1E0892B09F4D0E083E077
:100510000E94E00001E0009709F400E0EF2821F0DC
:10052000C11102C0D0925401892B21F0111102C0D7
:100530001092540183E090E00E94240D102FCD2FE3
:10054000DECFC1E08EE591E00E949801892B41F059
:100550008EE591E00E947601813339F4C093540115
:1005600083E090E00E94240DEDCF8033C9F7109214
:100570005401F6CF61E08BE00E94090180915401A3
:10058000882379F081E00E94B5008EE390E00E941C
:10059000240D80E00E94B5008EE390E00E94240DBF
:1005A000EDCF80E00E94B50086E090E0F7CF0F939A
:1005B0001F93CF93DF93E0916E01F0916F0182E082
:1005C0008083E0916A01F0916B011082E0916C01EF
:1005D000F0916D018FEC808310927601E0917201B1
:1005E000F091730186E08083E0917001F0917101D8
:1005F000808180618083E0917001F0917101808140
:1006000088608083E0917001F09171018081806841
:100610008083E0917001F091710180818F7D8083F2
:100620008FE190E00E941711EC01009781F099830F
:10063000888381E08B8F1C8ECE010E9466071D820D
:100640001C82198218821E82CE010E94220AD09337
:100650005601C093550110E000E021E040E850E071
:1006600069E171E08AE492E00E94351121E040E8FE
:1006700050E060E271E08FE593E00E94351121E0E7
:1006800040E850E067E271E083E792E00E943511B4
:1006900021E040E850E06FE271E081EA92E00E94E0
:1006A000351121E040E850E06AE371E08AEB92E026
:1006B0000E943511DF91CF911F910F910895CF9333
:1006C000DF93CDB7DEB7A1970FB6F894DEBF0FBEAC
:1006D000CDBF8AE0882E912CA12CB12C8BEB90E021
:1006E0000E94240D809154018823C1F3809155010B
:1006F000909156010E944D0BC0905201D090530131
:100700000D2C000CEE08FF08F7FE3DC06DE28EE5F3
:1007100091E00E94DD0122273327A9012C193D0910
:100720004E095F0919A2CE0181967C01CA01B90167
:10073000A50194010E94C214605DF70162937F01DC
:10074000211531054105510589F7E114F10461F0E6
:1007500001900020E9F73197AF014E195F09B70109
:100760008EE591E00E943A0142E050E060E471E0E1
:100770008EE591E00E943A018091550190915601D9
:100780000E94220AABCFA701960119A2CE01819641
:100790007C01CA01B901A50194010E94C214605DE7
:1007A000F70162937F01211531054105510589F754
:1007B000CCCF1F920F920FB60F9211242F933F931D
:1007C0008F939F93AF93BF9380911E0290911F02CE
:1007D000A0912002B091210230911D0223E0230F4D
:1007E0002D3758F50196A11DB11D20931D02809350
:1007F0001E0290931F02A0932002B09321028091C9
:10080000190290911A02A0911B02B0911C0201964C
:10081000A11DB11D8093190290931A02A0931B028F
:10082000B0931C02BF91AF919F918F913F912F91F7
:100830000F900FBE0F901F90189526E8230F029679
:10084000A11DB11DD2CF1F920F920FB60F9211248E
:100850002F933F934F935F936F937F938F939F93C8
:10086000AF93BF93EF93FF938EE591E00E94BB019E
:10087000FF91EF91BF91AF919F918F917F916F9178
:100880005F914F913F912F910F900FBE0F901F904E
:1008900018951F920F920FB60F9211242F938F93DA
:1008A0009F93EF93FF93E0916E01F0916F01808130
:1008B000E0917401F091750182FD1BC090818091DF
:1008C00077018F5F8F7320917801821741F0E0915B
:1008D0007701F0E0E25AFE4F958F80937701FF9108
:1008E000EF919F918F912F910F900FBE0F901F90BE
:1008F00018958081F4CFE0912402F0912502808147
:10090000811107C08FEF9FEF909318028093170219
:100910000895E0912402F09125020580F681E02DF2
:1009200080819181F1CFFC01DB010FB6F8940F9229
:1009300040915802509159022D913C9111972F3FAF
:10094000320711F18181928160915A02708176178C
:1009500049F04817590730F01D921C9281E00F9022
:100960000FBE0895481B590B42175307A8F7241BC5
:10097000350B2D933C9380915A02808380915802CD
:10098000909159029283818380E0E9CFCF93DF93E6
:10099000DC011596ED91FC910680F781E02DA4898C
:1009A000B5898685978520893189EC013D832C8323
:1009B000C089D1899B838A83CF010C9611962D9192
:1009C0003C9112972817390721F41296DC93CE93A5
:1009D0001197158A148A2C9121502C9320915A0139
:1009E000211157C0A285B3858481958126813781E5
:1009F000EC013D832C83C681D7819B838A83CF0101
:100A0000029611962D913C9112972817390721F4DF
:100A10001296DC93CE931197138612862C91215057
:100A20002C93C68920917F022C1710F4C0937F026B
:100A300029E02C9FE0011124C55ADD4F0980DA819D
:100A4000C02DD583C4834C815D8157834683AC819F
:100A5000BD8113969C938E9312979D838C83A68958
:100A6000A29FD0011124A55ABD4FB387A2878C91B4
:100A70008F5F8C93A0915602B0915702968956963B
:100A80008C91891730F581E080935901DF91CF91E6
:100A90000895A0913902B0913A02B787A6871496BB
:100AA0002D913C911597318B208B1496CD91DC9133
:100AB00015979B838A8315969C938E93149788E34E
:100AC00092E0958B848B809138028F5F80933802FF
:100AD000D1CF80E0DBCF0FB6F8940F92809158020F
:100AE000909159020F900FBE089580915A018F5F27
:100AF00080935A0108950FB6F8940F92FC01928DDD
:100B00000F900FBE81E0911180E00895EF92FF9267
:100B10000F931F93CF93DF93EC010FB6F8940F92CE
:100B20001E8D7C0181E1E80EF11C01E01116D4F06C
:100B30008FEF8E8F0F900FBE0FB6F8940F921D8D12
:100B40007E0188E0E80EF11C01E01116B4F08FEF91
:100B50008D8F0F900FBEDF91CF911F910F91FF905E
:100B6000EF9008958989882319F3C7010E94C6046C
:100B70008111009359011150D9CF8885882339F309
:100B8000C7010E94C6048111009359011150DDCFA5
:100B9000CF93DF93FC01A085B1858281938124816D
:100BA0003581EC013D832C83C481D5819B838A836D
:100BB00011968D919C9112978E179F0721F4129692
:100BC000DC93CE931197118610868C9181508C9373
:100BD000DF91CF9108950F931F93CF93DF938C01F3
:100BE000FB0180819181D80113968F3F9807F1F422
:100BF000E801AF81B88512968D919C9113979383EC
:100C00008283EC01FD83EC83B583A4831396FC936C
:100C1000EE93129711870087F80180818F5F8083A0
:100C2000DF91CF911F910F910895D90112962D91C7
:100C30003C911397E9014881598184179507A8F7DA
:100C4000DACFFC0173836283918780874617570749
:100C500090F0421B530B8485958548175907C8F4BB
:100C6000BF016E5F7F4F8091FD019091FE010E9458
:100C7000EB0580E008954217530718F462177307D5
:100C800040F4BF016E5F7F4F8091FF0190910002A1
:100C9000EECF81E00895EF92FF920F931F93CF93D1
:100CA000DF93EC018B017A016C857D85600F711FEC
:100CB0009801A701CE010E942106811107C0DF9192
:100CC000CF911F910F91FF90EF9008958C859D8596
:100CD000080F191FE889F989CE010995E5CFEF9230
:100CE000FF920F931F93CF93DF938C017B01E091D1
:100CF000FF01F09100020580F681E02DC681D781C9
:100D0000CE0102960E94C8058A8982FF0FC0A70102
:100D1000B801CE010E944B06E889F989CE01DF9126
:100D2000CF911F910F91FF90EF9009948E7F8A8B46
:100D3000F3CFE091FF01F0910002808181110DC09D
:100D40008091FD019091FE01909300028093FF013C
:100D5000F093FE01E093FD0108950580F681E02DFA
:100D60006FEF7FEF808191810E946F06E2CFBF928B
:100D7000CF92DF92EF92FF920F931F93CF93DF9367
:100D8000EC01B62EC0905802D09059020091240276
:100D900010912502E0902202F090230280915602E9
:100DA0009091570202960E94C805CF3FDC0709F0D8
:100DB00042C0BB2009F43FC0E0912702F091280215
:100DC000A0915602B09157021596FC93EE9314979A
:100DD000A0915602B09157028481958117969C93F9
:100DE0008E9316978091560290915702A481B581F7
:100DF000029613969C938E9312978091560290912F
:100E00005702029695838483E0915602F09157022F
:100E100086E292E093878287809126028F5F80939B
:100E20002602DF91CF911F910F91FF90EF90DF90FD
:100E3000CF90BF900895CC0DDD1DE0915602F0914A
:100E40005702D383C28360915602709157026E5F3E
:100E50007F4FCC15DD0560F4C701DF91CF911F9165
:100E60000F91FF90EF90DF90CF90BF900C94EB0527
:100E7000C8010E94EB058091170290911802C817D3
:100E8000D90778F6D0931802C0931702CACFCF9330
:100E9000DF93EB016091560270915702645F7F4FC0
:100EA0000E94EB0561E0CE01DF91CF910C94B70673
:100EB000FC010396928381832FEF3FEF34832383DA
:100EC000968385839087878310820895CF93DF93DD
:100ED000EC010FB6F8940F92888199812B8D4C8D7F
:100EE000BC01249F600D711D11247D836C831A8EBB
:100EF0009B838A832150330B429FB001439F700D27
:100F00001124860F971F9F838E838FEF8D8F8E8F77
:100F1000CE0108960E945807CE0141960E945807BC
:100F20000F900FBE81E0DF91CF9108950F920FB621
:100F3000F8940F921F9211242F923F924F925F923A
:100F40006F927F928F929F92AF92BF92CF92DF92D9
:100F5000EF92FF920F931F932F933F934F935F93C3
:100F60006F937F938F939F93AF93BF93CF93DF93B1
:100F7000EF93FF93A0915602B09157020DB60D92D8
:100F80000EB60D9280915A01882321F081E0809362
:100F9000590161C010925901A0915602B0915702B7
:100FA000E0915602F09157022D913C918789908DE6
:100FB00082179307A8F08091560290915702809172
:100FC000560290915702259A2D9A2FEF87EA91E6C3
:100FD000215080409040E1F700C000001D9AF5CFFD
:100FE00020917F0289E001C02150422F50E0849F70
:100FF000F001859FF00D1124E55AFD4F9081992352
:1010000099F3A181B28112966D917C917283618373
:10101000289FC0011124825A9D4F6817790721F437
:10102000858196819283818389E0849FF001859FE9
:10103000F00D1124E55AFD4F0180F281E02D8681EB
:101040009781909357028093560220937F0280915C
:10105000560290915702A0915602B0915702CD913D
:10106000CDBFDD91DEBFFF91EF91DF91CF91BF91B9
:10107000AF919F918F917F916F915F914F913F9130
:101080002F911F910F91FF90EF90DF90CF90BF9025
:10109000AF909F908F907F906F905F904F903F9018
:1010A0002F901F900F900FBE0F9008958F929F92D8
:1010B000BF92CF92DF92EF92FF920F931F93CF9345
:1010C000DF930FB6F8940F9280915A01815080936C
:1010D0005A0180915A01882379F080E00F900FBE69
:1010E000DF91CF911F910F91FF90EF90DF90CF9004
:1010F000BF909F908F90089580915502882369F347
:10110000E0903D02F0903E02F0E0E0E039E041E0A6
:101110008091380281115EC0EF2B11F00E947B0498
:10112000E0905701F0905801E114F10409F47DC1F9
:1011300089E0D82ECC24C3940FEF1FEF80915A0181
:10114000811161C1C0915802D09159024E018FEFB7
:10115000881A980A90925902809258028114910438
:10116000B9F48091240290912502209122023091BD
:10117000230230932502209324029093230280932C
:10118000220280915A028F5F80935A020E947B0450
:101190008091170290911802B12C8816990608F0D8
:1011A00026C1E0915602F0915702E689DE9EF001D9
:1011B0001124E55AFD4F8081823010F0BB24B39496
:1011C00080915901811103C0BB2009F425C1C0924F
:1011D000590122C1D7011696ED91FC91A489B589D8
:1011E0006685778580899189EB019D838C838089D1
:1011F0009189EC017B836A83BF01645F7F4F119605
:101200000D911C9112970617170721F412969C93C3
:101210008E931197158A148A8C9181508C93A28594
:10122000B3858481958166817781EC017D836C83B0
:1012300066817781EB019B838A83CF0102961196A9
:101240000D911C9112970817190721F412967C939F
:101250006E931197138612862C9121502C93A68998
:1012600020917F022A1710F4A0937F023A9FD001A9
:101270001124A55ABD4F11960D90BC91A02DB58398
:10128000A48314966D917C91159777836683149649
:101290006D917C911597EB019B838A8315969C93A6
:1012A0008E9314979689939FD0011124A55ABD4F10
:1012B000B387A2878C918F5F8C93A0915602B091D7
:1012C000570256968C91891708F022CF4093590106
:1012D0001FCFE0912402F09125020580F681E02DD8
:1012E0000680F781E02D828193818816990628F483
:1012F000909318028093170254CFC285D3858481BE
:10130000958126813781DC0115963C932E931497A5
:1013100026813781D90113969C938E931297CF0122
:10132000029649815A814817590711F43A83298353
:1013300013861286288121502883A489B5891097A5
:10134000F9F02685378540895189E9015D834C8311
:1013500040895189EA013B832A8311966D917C91E2
:1013600012979F01245F3F4F6217730721F4129673
:101370005C934E931197158A148A2C9121502C93CB
:10138000A68920917F022A1710F4A0937F02DA9E8B
:10139000D0011124A55ABD4F11960D90BC91A02DDE
:1013A000B583A48314962D913C911597378326839A
:1013B00014962D913C911597E9019B838A8315968C
:1013C0009C938E93149796899D9DD0011124A55AC4
:1013D000BD4FB387A2878C918F5F8C93E0915602AB
:1013E000F09157028689891710F4BB24B394E091D9
:1013F0002402F0912502808181116BCF1093180295
:1014000000931702CECE809157019091580101961A
:101410009093580180935701D1E0ED1AF10809F03B
:101420008DCE109258011092570180915901882356
:1014300009F453CE80915602909157020E9496076C
:1014400081E04CCEAF92BF92DF92EF92FF920F936A
:101450001F93CF93DF9300D000D01F92CDB7DEB79C
:101460008C011D821C8280E0780198E0E90EF11C5D
:101470000FB6F8940F92D8015A962C915A975B9612
:101480009C915B97291708F0B0C05A96DC905A9748
:101490005C964C915C9741118CC08D919C91892BED
:1014A00011F080E00AC0F801E480F580E114F10455
:1014B00031F580E0F80115821482D394D8015A9650
:1014C000DC925A9751969C91992321F0C80141963C
:1014D0000E94C60481110E9496070F900FBE81E002
:1014E0000F900F900F900F900F90DF91CF911F9161
:1014F0000F91FF90EF90DF90BF90AF900895D701CC
:101500009A968C919A9781509A968C939A97569620
:101510002C91569799969C91291759F28111C9CF10
:101520005701B2E0AB0EB11CC5010E94C805F7011E
:1015300081A5868B482F50E024E030E0241B350B3A
:101540003587248790917F02981710F480937F024B
:1015500089E0849FD001859FB00D1124A55ABD4F0D
:1015600011960D90BC91A02DF701B583A48314961C
:101570002D913C911597378326831496ED91FC911C
:101580001597B382A2821596BC92AE921497D7019A
:101590005696EC915697E89FF0011124E55AFD4FBD
:1015A0001B96FC93EE931A9780818F5F808381E076
:1015B00081CF50E070E060E012968D919C910E9486
:1015C000EA14F801848D22813381820F932F911DBB
:1015D00093838283248135818217930708F461CF36
:1015E00080819181938382835CCF2C813D81232BE9
:1015F00021F40F900FBE80E073CF811109C080915C
:101600005A02898380915802909159029B838A8360
:101610000F900FBE0E9475050FB6F8940F92F80157
:10162000858D8F3F09F4158ED8015E968C915E975B
:101630008F3F11F45E961C920F900FBEBE016C5F3F
:101640007F4FCE0101960E949304811120C00FB6F6
:10165000F8940F92F801928D838D0F900FBE98131E
:1016600010C06C817D81C7010E944707C8010E949C
:1016700086050E945608811102C00E94960781E0EB
:10168000F7CEC8010E9486050E945608F8CFC8010F
:101690000E9486050E945608AECF7F928F929F923D
:1016A000AF92BF92CF92DF92EF92FF920F931F9370
:1016B000CF93DF9300D000D01F92CDB7DEB78C015F
:1016C0008FEF9FEF9D838C83D12C90E0580121E117
:1016D000A20EB11C89E0782E24E0822E912C0FB648
:1016E000F8940F92D8015A968C915A978823C9F191
:1016F00081505A968C935A978D919C91892B71F4B5
:10170000E0915602F0915702309719F082A58F5F51
:1017100082A7D8011596FC93EE931497F801808563
:10172000882339F0C80108960E94C60481110E94DE
:1017300096070F900FBEDD24D3948D2D0F900F9040
:101740000F900F900F90DF91CF911F910F91FF900D
:10175000EF90DF90CF90BF90AF909F908F907F9051
:1017600008952C813D81232B21F40F900FBED12CA5
:10177000E4CF911109C080915A0289838091580267
:10178000909159029B838A830F900FBE0E9475052A
:101790000FB6F8940F92D8015D968C915D978F3FAC
:1017A00011F45D961C92F801868D8F3F09F4168E18
:1017B0000F900FBEBE016C5F7F4FCE0101960E945D
:1017C00093048111AFC0C8010E947B05882309F4EE
:1017D000A3C0D8018D919C91892B09F078C00FB6D8
:1017E000F8940F92F801E480F580E114F10409F413
:1017F00091C0D70156968C915697E0915602F09180
:1018000057029689891708F07AC01C962D913C9151
:101810001D9737FD0CC0E0915602F0915702968952
:101820009401291B31091D963C932E931C97879D8B
:10183000C0011124855A9D4FF70122853385281751
:10184000390709F054C06701F2E0CF0ED11CC60180
:101850000E94C805E0915602F0915702E689D7012F
:101860005696EC9380917F028E1710F4E0937F02DE
:101870007E9EF0011124E55AFD4F0180F281E02D9A
:10188000D7011596FC93EE93149784819581179652
:101890009C938E931697A481B5811396DC92CE9279
:1018A0001297D582C482D7015696EC915697E79D40
:1018B000F0011124E55AFD4F1B96FC93EE931A9705
:1018C00080818F5F8083DD24D3940F900FBE6C8165
:1018D0007D81C5010E944707C8010E9486050E94BC
:1018E0005608811102C00E94960791E0F8CEE0915F
:1018F0005602F09157028689F701868BE4CFE0917A
:101900005602F0915702DD24D39499969C918689D2
:101910009817D8F2D12CD9CFC8010E9486050E9411
:101920005608E3CFC8010E9486050E945608C801E8
:101930000E947B058823C9F2DD2009F4FECE0FB694
:10194000F8940F92F8018189882309F47BC00688F6
:10195000F789E02D908184E0891BD80114960D91C0
:101960001C910115110509F400CFF80191A59817F4
:1019700008F4982FD80156968C915697981709F429
:10198000F4CE9A962C919A97213009F0EECE569685
:101990009C9356971C962D913C911D9737FD08C03E
:1019A00024E030E0291B31091D963C932E931C97AF
:1019B000B9E08B9FC0011124855A9D4FF801228503
:1019C00033852817390709F0D0CE7801F2E0EF0E01
:1019D000F11CC7010E94C805F801A68980917F0209
:1019E0008A1710F4A0937F0289E08A9FD001112406
:1019F000A55ABD4F11960D90BC91A02DF801B5834D
:101A0000A48314962D913C911597378326831496C1
:101A1000ED91FC911597F382E2821596FC92EE927D
:101A20001497D8015696EC915697E89FF00111242F
:101A3000E55AFD4F1B96FC93EE931A9780818F5FBA
:101A4000808393CE80E089CFCF93DF93EC010E9417
:101A5000750560E0CE010E94B7060E94560881110C
:101A600002C00E949607DF91CF9108950F920FB6A2
:101A7000F8940F921F9211242F923F924F925F92EF
:101A80006F927F928F929F92AF92BF92CF92DF928E
:101A9000EF92FF920F931F932F933F934F935F9378
:101AA0006F937F938F939F93AF93BF93CF93DF9366
:101AB000EF93FF93A0915602B09157020DB60D928D
:101AC0000EB60D9213BE80915A018111F9C080911A
:101AD00058029091590201969093590280935802AE
:101AE000009781F520912402309125024091220235
:101AF00050912302509325024093240230932302F5
:101B00002093220220915A022F5F20935A02E091E3
:101B10002402F09125022081211107C02FEF3FEF11
:101B200030931802209317020DC0E0912402F09127
:101B300025020580F681E02D208131813093180245
:101B400020931702209117023091180282179307F1
:101B500010F420E0A1C020E039E0D32EE09124026F
:101B6000F09125023081311107C08FEF9FEF9093E4
:101B700018028093170290C0E0912402F091250290
:101B80000580F681E02D0680F781E02D42815381AA
:101B90008417950728F450931802409317027CC0CD
:101BA000A285B3854481558166817781EA017D8371
:101BB0006C8366817781EB015B834A83AF014E5F63
:101BC0005F4F11960D911C9112970417150721F480
:101BD00012967C936E931197138612863C91315026
:101BE0003C93A489B5891097F9F0668577850089BB
:101BF0001189EB011D830C8300891189E8017B8326
:101C00006A831196ED90FC901297BF01645F7F4F3D
:101C1000E616F70621F412961C930E931197158A77
:101C2000148A3C9131503C93A68930917F023A1737
:101C300010F4A0937F02DA9ED0011124A55ABD4F63
:101C400011960D90BC91A02DB583A48314966D912F
:101C50007C9115977783668314966D917C91159787
:101C6000EB015B834A8315965C934E9314974689E8
:101C70004D9DD0011124A55ABD4FB387A2873C9139
:101C80003F5F3C93E0915602F0915702368934173A
:101C900008F064CF21E062CFE0915602F091570244
:101CA000E689D9E0ED9FF0011124E55AFD4F8081CE
:101CB000823008F021E08091590181110EC00AC0E4
:101CC000809157019091580101969093580180930B
:101CD00057016CC0222309F469C080915A018823FE
:101CE00021F081E08093590161C010925901A091C7
:101CF0005602B0915702E0915602F09157022D9191
:101D00003C918789908D82179307A8F080915602A5
:101D1000909157028091560290915702259A2D9AE0
:101D20002FEF87EA91E6215080409040E1F700C014
:101D300000001D9AF5CF20917F0289E001C021505B
:101D4000422F50E0849FF001859FF00D1124E55A49
:101D5000FD4F9081992399F3A181B28112966D91E3
:101D60007C9172836183289FC0011124825A9D4F08
:101D70006817790721F4858196819283818389E0B0
:101D8000849FF001859FF00D1124E55AFD4F0180DD
:101D9000F281E02D868197819093570280935602BD
:101DA00020937F028091560290915702A091560293
:101DB000B0915702CD91CDBFDD91DEBFFF91EF9184
:101DC000DF91CF91BF91AF919F918F917F916F9153
:101DD0005F914F913F912F911F910F91FF90EF9045
:101DE000DF90CF90BF90AF909F908F907F906F903B
:101DF0005F904F903F902F901F900F900FBE0F90CD
:101E00000895CF93DF93009751F0EC010E94750580
:101E1000CE010E943914DF91CF910C945608DF91C6
:101E2000CF910895CF93DF93CDB7DEB72A970FB642
:101E3000F894DEBF0FBECDBF85E0B82ECE0101966F
:101E40007C01E091FF01F09100021081D12CC12CA6
:101E5000112329F00580F681E02DC080D1800E94F9
:101E600075050E946B054C0180915C0190915D01AC
:101E70008816990608F090C00E94990690925D011C
:101E800080925C010E945608D701EB2D1D92EA95C5
:101E9000E9F700911502109116021A86198680E062
:101EA0004801F1E18F0E911C0FB6F8940F92D80102
:101EB0005A96DC905A97DD2009F42FC15C964C911C
:101EC0005C974423F9F050E016968D919C911797FA
:101ED000840F951F17969C938E93169714962D91A9
:101EE0003C9115978217930738F08D919C9111972B
:101EF00017969C938E931697F80166817781C70198
:101F00000E94EA14DA94D8015A96DC925A971896ED
:101F10008C91882339F0C80108960E94C60481116B
:101F20000E9496070F900FBEA980A7FCB2CF0C812C
:101F30001D81D8011A968D919C91892B21F0C801A1
:101F400002960E94C8050E946B056C0180915C019D
:101F500090915D01C816D90610F40E949906D0929E
:101F60005D01C0925C01EFEFEA0DE93008F091CF1E
:101F70000E2E000CFF0BED53F04FD80152968C91B2
:101F800052970C94E4144610461089107110831077
:101F9000461046108910711090925D0180925C018C
:101FA000112351F08C149D0470F00E945608B40166
:101FB000C6010E946F0668CFE091FD01F091FE011D
:101FC00061E08081811160E000911502109116029C
:101FD0000FB6F8940F92D8015D968C915D978F3F64
:101FE00011F45D961C92F801868D8F3F09F4168ED0
:101FF0000F900FBED8015A968C915A9781113CC010
:102000005296ED91FC91A0915602B09157021F9605
:10201000FC93EE931E97A0915602B09157028481D3
:10202000958151969C938E935097809156029091F2
:102030005702A481B5810C9613969C938E931297A8
:1020400080915602909157020C9695838483E0917B
:102050005602F0915702C8014196958B848BF80186
:1020600081898F5F818BC60188199909662311F0D8
:102070008FEF9FEF0E94B706C8010E9486050E945D
:102080005608811101CF0E949607FECE8160F801AB
:10209000828B8A809B8064857585680D791D94018B
:1020A000A601C8010E942106882309F4F2CED801B6
:1020B00052968C91529782FF10C01C966D917C9124
:1020C000680D791DA601C8010E944B06D8015096E3
:1020D000ED91FC91C8010995DCCE8E7FF801828BD1
:1020E000F5CF816052968C9352976A817B811D96C1
:1020F0007C936E931C976C0D7D1D9601A601C80103
:102100000E942106C6CE81FD04C0C8010E94010FB5
:10211000C0CE8E7FF801828BBCCE29853A85232BD9
:1021200019F40F900FBE8DCE811109C080915A0213
:102130008E83809158029091590298878F830F90D7
:102140000FBE0E9475050FB6F8940F92F801858DA9
:102150008F3F09F4158ED8015E968C915E978F3F64
:1021600011F45E961C920F900FBEBE01675F7F4F09
:10217000CE0106960E94930481111BC0C8010E94E3
:102180007B05882381F069857A85C4010E94470711
:10219000C8010E9486050E945608811102C00E9453
:1021A000960781E081CEC8010E9486050E945608EC
:1021B000F8CFC8010E9486050E945608C8010E94F7
:1021C0007B05882371F33DCE00E010E080915B0138
:1021D00081110CC080915B02823010F00E94960742
:1021E0000115110599F30E94AE01F0CF0FB6F894D6
:1021F0000F92E0913402F0913502C681D781CE0171
:1022000002960E94C8058091550281508093550224
:1022100080915B01815080935B010F900FBE8F898D
:10222000988D0E94010FCE010E94010FCFCFCF9356
:10223000DF93EC010E947505CE010E949D13EC0115
:102240000E945608209769F4259A2D9A2FEF80E76F
:1022500092E0215080409040E1F700C000001D9ABC
:10226000F5CFCE01DF91CF9108957F928F929F920B
:10227000AF92BF92CF92DF92EF92FF920F931F9394
:10228000CF93DF93982EA92E762E872E7A01B22E29
:10229000CA010E9417116C01892B09F4EDC080E37B
:1022A00090E00E941711EC01892B09F4E2C080E351
:1022B000DE011D928A95E9F7D88ECF8AA70165EADB
:1022C00070E0C6010E94F314B1E0EB1AF108EF8947
:1022D000F88DEE0DFF1D672D782DCE0149969B01DF
:1022E000205F3F4FDB014D91BD01DC014D93CD01DE
:1022F000AB0141505109DA014C91442319F02617E2
:10230000370781F718A6BE8AB9A61B861A861D8ACA
:102310001C8AD987C88784E090E08B1991099D8732
:102320008C87DB8BCA8B9082DF011197AC9211975F
:102330001C92119780E88C9311971C9257971C92CE
:1023400011971C92B397F983E8830115110519F0D1
:10235000F801D183C0830FB6F8940F928091550293
:102360008F5F809355028091560290915702892B7E
:1023700009F091C0D0935702C09356028091550244
:10238000813081F58BE592E00E94580784E692E067
:102390000E9458078DE692E00E94580786E792E077
:1023A0000E9458078AE492E00E94580781E492E074
:1023B0000E94580788E392E00E9458078FE292E05B
:1023C0000E94580786E292E00E9458078AE492E051
:1023D000909325028093240281E492E0909323025B
:1023E00080932202809153028F5F80935302AE89C3
:1023F00080917F028A1710F4A0937F0229E02A9F20
:10240000D0011124A55ABD4F11960D90BC91A02D5D
:10241000BD83AC8314968D919C9115979F838E8379
:102420001496ED91FC911597CE01029693838283C9
:1024300015969C938E931497EE89E29FF0011124D8
:10244000E55AFD4FFB87EA8780818F5F80830F907D
:102450000FBE80915402882351F0E0915602F09112
:10246000570296898E89981710F40E94960781E08A
:1024700004C0C6010E94010F8FEFDF91CF911F9121
:102480000F91FF90EF90DF90CF90BF90AF909F9013
:102490008F907F900895809154028111A3CFE09195
:1024A0005602F091570296898E89891708F49ACFBF
:1024B000D0935702C093560295CF0E94360D1895BF
:1024C000CF93DF93CDB7DEB760970FB6F894DEBF3A
:1024D0000FBECDBF789484B5826084BD84B5816021
:1024E00084BD85B5826085BD85B5816085BD8091DF
:1024F0006E00816080936E00109281008091810057
:10250000826080938100809181008160809381004E
:10251000809180008160809380008091B100846010
:102520008093B1008091B00081608093B000809171
:102530007A00846080937A0080917A008260809330
:102540007A0080917A00816080937A0080917A008D
:10255000806880937A001092C1002091050130912B
:1025600006018FEF98E0821B930B909302018093FA
:1025700001010E94D702A3E4B1E0FE013196BF0140
:102580008D918193882321F081E0A335B807C1F7AD
:102590000BEF11E020E040EC50E084EE90E10E946F
:1025A0003511882309F490C0813009F08DC00FB631
:1025B000F8940F928091150290911602892B51F593
:1025C0008AE092E00E94580781E092E00E9458075A
:1025D0008AE092E0909300028093FF0181E092E014
:1025E0009093FE018093FD0181E590E00E94171118
:1025F0008C01009759F04F96F801918380838AE00F
:10260000838F85E0848FC8010E94660710931602AD
:10261000009315020F900FBE809115029091160243
:10262000892B09F451C003E112E023E04CE550E0AE
:1026300068E471E082E19FE00E943511813009F089
:1026400043C0F8942FEF3FEF309318022093170206
:10265000809354021092590210925802A89588E172
:1026600090EC0FB6F894A895809360000FBE9093FD
:102670006000A0915602B0915702CD91CDBFDD917F
:10268000DEBFFF91EF91DF91CF91BF91AF919F910D
:102690008F917F916F915F914F913F912F911F91FA
:1026A0000F91FF90EF90DF90CF90BF90AF909F90F1
:1026B0008F907F906F905F904F903F902F901F90E2
:1026C0000F900FBE0F900895809100010E94D702D5
:1026D00000E010E001151105E9F30E94AE01FACF08
:1026E000EEE5F1E01382128288EE93E0A0E0B0E024
:1026F00084839583A683B7838BE091E09183808365
:1027000085EC90E09587848784EC90E097878687B6
:1027100080EC90E0918B808B81EC90E0938B828BAE
:1027200082EC90E0958B848B86EC90E0978B868B87
:10273000118E128E138E148E08950F931F93CF93C4
:10274000DF938230910510F482E090E0E091820204
:10275000F091830230E020E0B0E0A0E0309799F4FF
:102760002115310509F44AC0281B390B24303105E5
:10277000D8F58A819B816115710589F1FB019383ED
:102780008283FE0111C0408151810281138148176B
:102790005907E0F04817590799F4109761F012961D
:1027A0000C93129713961C933296CF01DF91CF9121
:1027B0001F910F9108950093820210938302F4CF2A
:1027C0002115310551F04217530738F0A901DB01FB
:1027D0009A01BD01DF01F801C1CFEF01F9CF90935C
:1027E000830280938202CDCFFE01E20FF31F81931B
:1027F00091932250310939832883D7CF20918002C9
:1028000030918102232B41F4209103013091040186
:1028100030938102209380022091010130910201C6
:102820002115310541F42DB73EB740910501509176
:102830000601241B350BE0918002F0918102E21722
:10284000F307A0F42E1B3F0B2817390778F0AC01D3
:102850004E5F5F4F2417350748F04E0F5F1F5093B0
:10286000810240938002819391939FCFF0E0E0E05A
:102870009CCFCF93DF930097E9F0FC01329713824E
:102880001282A0918202B0918302ED0130E020E03B
:102890001097A1F420813181820F931F2091800233
:1028A000309181022817390709F061C0F093810245
:1028B000E0938002DF91CF910895EA01CE17DF0700
:1028C000E8F54A815B819E0141155105B1F7E901A7
:1028D000FB83EA8349915991C40FD51FEC17FD077B
:1028E00061F4808191810296840F951FE90199839B
:1028F0008883828193819B838A83F0E0E0E0129653
:102900008D919C9113970097B9F52D913C9111975A
:10291000CD010296820F931F209180023091810297
:102920002817390739F6309751F510928302109223
:102930008202B0938102A0938002BCCFD383C28372
:1029400040815181840F951FC817D90761F44E5FEC
:102950005F4F88819981480F591F518340838A8135
:102960009B81938382832115310509F0B0CFF093C9
:102970008302E09382029ECFFD01DC01C0CF13826F
:102980001282D7CFA1E21A2EAA1BBB1BFD010DC0DC
:10299000AA1FBB1FEE1FFF1FA217B307E407F5070F
:1029A00020F0A21BB30BE40BF50B661F771F881FEB
:1029B000991F1A9469F760957095809590959B0181
:1029C000AC01BD01CF010895EE0FFF1F0590F491FA
:1029D000E02D0994FB01DC0102C001900D924150F1
:1029E0005040D8F70895DC0101C06D93415050402C
:0829F000E0F70895F894FFCF11
:1029F8000300008402800000000000DD013A016746
:102A0800012A02980176018A01416E616C6F6700A4
:102A180053657269616C00427574746F6E7300530C
:102A2800657269616C4374726C00426C696E6B000C
:102A38000D0A0049444C4500546D722053766300DA
:00000001FF
