:100000000C9454000C9487030C9460030C947C00B3
:100010000C947C000C947C000C947C000C947C0070
:100020000C947C000C947C000C947C000C947C0060
:100030000C947C000C947C000C947C000C947C0050
:100040000C9416030C947C000C94D4030C94AE0313
:100050000C947C000C947C000C947C000C947C0030
:100060000C947C000C947C0000000000250028000B
:100070002B0000000000240027002A0004040404D0
:100080000404040402020202020203030303030342
:10009000010204081020408001020408102001021F
:1000A000040810200604A40611241FBECFEFD8E0D8
:1000B000DEBFCDBF22E0A4E8B1E001C01D92AE33A7
:1000C000B207E1F711E0A0E0B1E0E6EFF2E102C033
:1000D00005900D92A438B107D9F710E0C3E5D0E040
:1000E00004C02197FE010E945F07C235D107C9F7FE
:1000F0000E943F040C946E090C940000CF93DF9390
:1001000090E0FC01E057FF4F249184589F4FFC0181
:1001100084918823C1F090E0880F991FFC01EE586C
:10012000FF4FC591D491FC01E859FF4FA591B491BF
:100130009FB7F8948881E22FE0958E2388838C9175
:10014000E823EC939FBFDF91CF91089581E08093E6
:100150008501089581E08093840108950895AF9208
:10016000BF92CF92DF92EF92FF920F931F93CF93A4
:10017000DF936C017B018B01040F151FEB015E0106
:10018000AE18BF08C017D10759F06991D601ED919B
:10019000FC910190F081E02DC6010995892B79F73A
:1001A000C501DF91CF911F910F91FF90EF90DF90EC
:1001B000CF90BF90AF900895FC01538D448D252FB3
:1001C00030E0842F90E0821B930B541710F0CF96F1
:1001D000089501970895FC01918D828D981761F023
:1001E000A28DAE0FBF2FB11D5D968C91928D9F5F3A
:1001F0009F73928F90E008958FEF9FEF0895FC0119
:10020000918D828D981731F0828DE80FF11D858DCB
:1002100090E008958FEF9FEF0895FC01918D228D5E
:10022000892F90E0805C9F4F821B91098F739927E3
:10023000089587E991E00E940D0121E0892B09F4DE
:1002400020E0822F089580E090E0892B29F00E9421
:10025000190181110C9400000895FC01A48DA80FD0
:10026000B92FB11DA35ABF4F2C91848D90E00196F8
:100270008F739927848FA689B7892C93A089B18918
:100280008C91837080648C93938D848D981306C0B9
:100290000288F389E02D80818F7D80830895EF921D
:1002A000FF920F931F93CF93DF93EC0181E0888F30
:1002B0009B8D8C8D98131AC0E889F989808185FF00
:1002C00015C09FB7F894EE89FF896083E889F989A2
:1002D00080818370806480839FBF81E090E0DF91A4
:1002E000CF911F910F91FF90EF900895F62E0B8DF7
:1002F00010E00F5F1F4F0F731127E02E8C8D8E11B2
:100300000CC00FB607FCFACFE889F989808185FF18
:10031000F5CFCE010E942D01F1CFEB8DEC0FFD2F1B
:10032000F11DE35AFF4FF0829FB7F8940B8FEA89D3
:10033000FB8980818062CFCFCF93DF93EC01888DE2
:100340008823B9F0AA89BB89E889F9898C9185FD50
:1003500003C0808186FD0DC00FB607FCF7CF8C91DE
:1003600085FFF2CF808185FFEDCFCE010E942D0168
:10037000E9CFDF91CF910895FC0101900020E9F7CA
:100380003197AF01481B590BBC0187E991E00C94F0
:10039000AF008F929F92AF92BF920F931F93CF9314
:1003A000DF93CDB7DEB7A1970FB6F894DEBF0FBECF
:1003B000CDBF19A2423008F44AE08E010F5D1F4FF5
:1003C000842E912CB12CA12CA50194010E943D07F3
:1003D000E62FB901CA01EA30F4F4E05DD801EE93EA
:1003E0008D01232B242B252B79F790E080E01097AB
:1003F00019F0CD010E94BC01A1960FB6F894DEBFA2
:100400000FBECDBFDF91CF911F910F91BF90AF90E5
:100410009F908F900895E95CE1CFCF93DF930E9486
:10042000BC01EC018EE191E00E94BC018C0F9D1F8C
:10043000DF91CF910895FC0180819181009711F0A7
:100440000C94010808950F931F93CF93DF93EC0151
:1004500088819981009759F02A813B8126173707B7
:1004600030F081E0DF91CF911F910F9108958B01C2
:100470006F5F7F4F0E948A08009759F099838883A5
:100480001B830A832C813D81232B59F7FC011082A9
:10049000E8CF80E0E7CFEF92FF920F931F93CF93C7
:1004A000DF93EC017B018A01BA010E9423022881BB
:1004B0003981811114C02115310519F0C9010E943B
:1004C0000108198218821D821C821B821A82CE01A9
:1004D000DF91CF911F910F91FF90EF9008951D83B1
:1004E0000C83B701C9010E945909F1CFFB010190AA
:1004F0000020E9F73197AF01461B570B0C944B02D4
:10050000AF92BF92CF92DF92EF92FF920F931F9321
:10051000CF93DF93C0910401D09105019E012B5F21
:100520003F4F2115344070F081E291E0DF91CF918F
:100530001F910F91FF90EF90DF90CF90BF90AF9001
:100540000C940D02D82E06E811E0F12CE12CF801F4
:10055000C1908F015E01AE0CBF1CC5010E94F00668
:10056000C81621F06C2DC5010E94F806FFEFEF1AA6
:10057000FF0A84E0E816F10451F78091040190919C
:1005800005016D2D04960E94F806E0900401F0909C
:10059000050195E0E90EF11CF0920501E0920401DD
:1005A00090E080E00E94F006E81629F06E2D90E0C1
:1005B00080E00E94F806F090050181E090E00E9442
:1005C000F0068F1529F06F2D81E090E00E94F8066B
:1005D0008DE291E00E94BC01C0900401D090050121
:1005E0000D2C000CEE08FF084AE0C701B601F7FE2B
:1005F0000DC06DE287E991E00E944F0166277727E1
:10060000CB016C197D098E099F094AE00E94C9013E
:100610008EE191E0DF91CF911F910F91FF90EF90CC
:10062000DF90CF90BF90AF900C94BC011F920F92BF
:100630000FB60F9211242F933F938F939F93AF93F5
:10064000BF938091930190919401A0919501B091F5
:1006500096013091920123E0230F2D3758F5019632
:10066000A11DB11D20939201809393019093940159
:10067000A0939501B093960180918E0190918F0186
:10068000A0919001B09191010196A11DB11D80939F
:100690008E0190938F01A0939001B0939101BF912F
:1006A000AF919F918F913F912F910F900FBE0F901F
:1006B0001F90189526E8230F0296A11DB11DD2CFD9
:1006C0001F920F920FB60F9211242F933F934F93C7
:1006D0005F936F937F938F939F93AF93BF93EF93AA
:1006E000FF93E0910201F09103010995FF91EF91D1
:1006F000BF91AF919F918F917F916F915F914F913A
:100700003F912F910F900FBE0F901F9018951F9241
:100710000F920FB60F9211242F933F934F935F9335
:100720006F937F938F939F93AF93BF93EF93FF93B9
:10073000E0910001F09101010995FF91EF91BF91C6
:10074000AF919F918F917F916F915F914F913F9169
:100750002F910F900FBE0F901F9018951F920F9220
:100760000FB60F9211242F933F934F935F936F9384
:100770007F938F939F93AF93BF93EF93FF9387E9FB
:1007800091E00E942D01FF91EF91BF91AF919F9158
:100790008F917F916F915F914F913F912F910F902A
:1007A0000FBE0F901F9018951F920F920FB60F92C9
:1007B00011242F938F939F93EF93FF93E091A701C1
:1007C000F091A8018081E091AD01F091AE0182FD30
:1007D0001BC090818091B0018F5F8F732091B10118
:1007E000821741F0E091B001F0E0E956FE4F958F9D
:1007F0008093B001FF91EF919F918F912F910F9076
:100800000FBE0F901F9018958081F4CFE7E9F1E0BB
:100810001382128288EE93E0A0E0B0E08483958397
:10082000A683B78380E191E09183808385EC90E09B
:100830009587848784EC90E09787868780EC90E0AA
:10084000918B808B81EC90E0938B828B82EC90E09B
:10085000958B848B86EC90E0978B868B118E128E15
:10086000138E148EE4E3F2E011821082138212825E
:100870001582148260E271E0CF010C947602CF936E
:10088000DF93CDB7DEB72C970FB6F894DEBF0FBE5F
:10089000CDBF789484B5826084BD84B5816084BD09
:1008A00085B5826085BD85B5816085BD80916E000E
:1008B000816080936E00109281008091810082603F
:1008C000809381008091810081608093810080917C
:1008D00080008160809380008091B100846080936B
:1008E000B1008091B00081608093B00080917A0067
:1008F000846080937A0080917A00826080937A008D
:1009000080917A00816080937A0080917A0080687B
:1009100080937A001092C100E091A701F091A801A4
:1009200082E08083E091A301F091A4011082E09124
:10093000A501F091A6018FEC80831092AF01E091A8
:10094000AB01F091AC0186E08083E091A901F091C8
:10095000AA01808180618083E091A901F091AA01C0
:10096000808188608083E091A901F091AA01808153
:1009700080688083E091A901F091AA0180818F7D38
:10098000808382E00E947E0083E00E947E0086EAEF
:1009900090E09093010180930001809169008C7F29
:1009A000826080936900E89A8AEA90E0909303015C
:1009B0008093020180916900837F88608093690041
:1009C000E99A90E080E00E94F0068093040181E0C3
:1009D00090E00E94F0068093050182E491E00E947D
:1009E0000D0220E0A22E20E0B22E2FB7F8948091C5
:1009F000930190919401A0919501B09196012FBF20
:100A000040918A0150918B0160918C0170918D0110
:100A1000841B950BA60BB70B883E9340A105B1052F
:100A200030F18091860190918701A0918801B09169
:100A300089010196A11DB11D8093860190938701C4
:100A4000A0938801B09389012FB7F8948091930106
:100A500090919401A0919501B09196012FBF809340
:100A60008A0190938B01A0938C01B0938D0187E94B
:100A700091E00E940D01892B09F448C187E991E0BA
:100A80000E94EB008A3009F01DC118861F821A8669
:100A900019861C861B86609134027091350261159F
:100AA000710541F04091380250913902CE0107960C
:100AB0000E944B02CF80D884C114D10439F00B8539
:100AC0001C8576010115110509F090C01A82198262
:100AD0001C821B821E821D8260E571E0CE010196A0
:100AE0000E9476024D815E818B859C8584179507D7
:100AF00070F08F819885009751F069817A81611536
:100B0000710529F00E94600911E0892B09F010E0BD
:100B1000CE0101960E941B02112309F4AEC0EB84A2
:100B2000FC8485E0C82ED12CF5E0EF16F10420F40A
:100B3000670195E0E92EF12C1A8219821C821B8232
:100B40001E821D8260E271E0CE0101960E94760253
:100B50000B851C85C016D10620F5E016F10608F4B9
:100B60008701EF81F885E00FF11FF08010826F811F
:100B700078856C0D7D1D6115710509F46DC0FB0153
:100B800001900020E9F73197AF01461B570BCE01CA
:100B900001960E944B028F819885080F191FF8015A
:100BA000F08289819A81009709F463C00E94A806A7
:100BB00060938601709387018093880190938901E7
:100BC00086E591E00E940D02CE0101960E941B0273
:100BD000CE0107960E941B0250E040E060E271E007
:100BE00084E392E00E944B0242CF740147018FEFF1
:100BF000881A980AF7018081082E000C990B0E9430
:100C0000E406892B91F7015011090C0D1D1DF80107
:100C10008081082E000C990B0E94E406892B31F08C
:100C20000E151F0518F001501109F1CFA8014F5FF3
:100C30005F4F4E195F095C874B87CE14DF0420F4A9
:100C4000B701C6010E944709EF81F8858B859C8515
:100C5000E80FF91F10823ACF89819A81009711F02D
:100C60000E9401081A8219821E821D821C821B8228
:100C700092CF60E070E0CB019BCF8B859C85892B68
:100C8000E1F066E671E08F8198850E945009892B1A
:100C9000A1F480E591E00E94BC0160918601709111
:100CA000870180918801909189014AE00E94C901E1
:100CB0008EE191E00E94BC018BCF8EE691E00E9414
:100CC0000D0286CF89831A82009138021091390271
:100CD0000F5F1F4FB80184E392E00E942302882334
:100CE00009F4C5CE2091340230913502809138024A
:100CF00090913902BE016F5F7F4F820F931F0E9458
:100D000059091093390200933802B1CE80918501C0
:100D1000882329F082E00E94800210928501809150
:100D20008401882329F083E00E94800210928401CC
:100D3000A114B10409F459CE0E941901882309F4C1
:100D400054CE0E94000051CE84E392E00C941B022A
:100D50001F93FC0199278827BC01E8941191103258
:100D6000E9F3193010F01E30C8F31B3251F01D3278
:100D700049F4689406C00E94CF06610F711D811D61
:100D8000911D119110531A30B0F33EF49095809557
:100D9000709561957F4F8F4F9F4F1F910895592FE9
:100DA000482F372F262F660F771F881F991F660F32
:100DB000771F881F991F620F731F841F951F660F6F
:100DC000771F881F991F089591110C94ED068032AA
:100DD00019F089508550C8F70895992788270895F4
:100DE000F999FECF92BD81BDF89A992780B50895F3
:100DF000262FF999FECF1FBA92BD81BD20BD0FB637
:100E0000F894FA9AF99A0FBE019608952F923F929C
:100E10004F925F926F927F928F929F92AF92BF920A
:100E2000CF92DF92EF92FF920F931F93CF93DF93B6
:100E3000CDB7DEB7CA1BDB0B0FB6F894DEBF0FBE13
:100E4000CDBF09942A88398848885F846E847D8460
:100E50008C849B84AA84B984C884DF80EE80FD8062
:100E60000C811B81AA81B981CE0FD11D0FB6F894D8
:100E7000DEBF0FBECDBFED010895A1E21A2EAA1B61
:100E8000BB1BFD010DC0AA1FBB1FEE1FFF1FA2173A
:100E9000B307E407F50720F0A21BB30BE40BF50B37
:100EA000661F771F881F991F1A9469F760957095C0
:100EB000809590959B01AC01BD01CF010895EE0F87
:100EC000FF1F0590F491E02D09940F931F93CF938A
:100ED000DF938230910510F482E090E0E0913C02D3
:100EE000F0913D0230E020E0B0E0A0E0309799F4CE
:100EF0002115310509F44AC0281B390B243031056E
:100F0000D8F58A819B816115710589F1FB01938375
:100F10008283FE0111C040815181028113814817F3
:100F20005907E0F04817590799F4109761F01296A5
:100F30000C93129713961C933296CF01DF91CF91A9
:100F40001F910F91089500933C0210933D02F4CF3E
:100F50002115310551F04217530738F0A901DB0183
:100F60009A01BD01DF01F801C1CFEF01F9CF9093E4
:100F70003D0280933C02CDCFFE01E20FF31F81932F
:100F800091932250310939832883D7CF20913A0297
:100F900030913B02232B41F420910801309109014B
:100FA00030933B0220933A022091060130910701D1
:100FB0002115310541F42DB73EB740910A015091FA
:100FC0000B01241B350BE0913A02F0913B02E21732
:100FD000F307A0F42E1B3F0B2817390778F0AC015C
:100FE0004E5F5F4F2417350748F04E0F5F1F509339
:100FF0003B0240933A02819391939FCFF0E0E0E06F
:101000009CCFCF93DF930097E9F0FC0132971382D6
:101010001282A0913C02B0913D02ED0130E020E04F
:101020001097A1F420813181820F931F20913A0201
:1010300030913B022817390709F061C0F0933B0259
:10104000E0933A02DF91CF910895EA01CE17DF07CE
:10105000E8F54A815B819E0141155105B1F7E9012F
:10106000FB83EA8349915991C40FD51FEC17FD0703
:1010700061F4808191810296840F951FE901998323
:101080008883828193819B838A83F0E0E0E01296DB
:101090008D919C9113970097B9F52D913C911197E3
:1010A000CD010296820F931F20913A0230913B02AC
:1010B0002817390739F6309751F510923D021092F2
:1010C0003C02B0933B02A0933A02BCCFD383C283CD
:1010D00040815181840F951FC817D90761F44E5F75
:1010E0005F4F88819981480F591F518340838A81BE
:1010F0009B81938382832115310509F0B0CFF09352
:101100003D02E0933C029ECFFD01DC01C0CF138283
:101110001282D7CFB0E0A0E0E0E9F8E00C94080735
:101120008C01009751F4CB010E9465078C01C80126
:10113000CDB7DEB7E0E10C942407FC01E60FF71F02
:101140009C0122503109E217F30708F49DC0D90130
:10115000CD91DC911197C617D70798F0C530D1050E
:1011600030F3CE0104978617970708F3C61BD70BF9
:101170002297C193D1936D937C93CF010E94010874
:10118000D6CF5B01AC1ABD0A4C018C0E9D1EA091FE
:101190003C02B0913D02512C412CF12CE12C1097D6
:1011A00031F580913A0290913B028815990509F03A
:1011B0005CC04616570608F058C080910601909111
:1011C0000701009741F48DB79EB740910A015091F5
:1011D0000B01841B950BE817F90708F055C0F09335
:1011E0003B02E0933A02F90171836083A0CF8D91B5
:1011F0009C91119712966C90129713967C9013976E
:10120000A815B90559F56C0142E0C40ED11CCA14E9
:10121000DB0420F1AC014A195B09DA01129615973B
:1012200080F06282738251834083D9016D937C93F5
:10123000E114F10471F0D7011396FC93EE93129729
:1012400076CF22968C0F9D1FF90191838083F30145
:10125000EFCFF0933D02E0933C0269CF4816590668
:1012600008F42C017D01D3019ACFCB010E946507C0
:101270007C01009749F0AE01B8010E944709C801FE
:101280000E940108870153CF10E000E050CFFB011E
:10129000DC0102C001900D9241505040D8F70895F2
:1012A000FB01DC018D91019080190110D9F3990B9C
:1012B0000895FB01DC0101900D920020E1F70895F3
:1012C000FB01DC014150504030F08D9101908019BC
:1012D00019F40020B9F7881B990B089510E0C3E5B5
:1012E000D0E004C0FE010E945F072196C435D107FB
:0612F000C9F7F894FFCFDE
:1012F600AE00AE00020000003E02800000000000CA
:101306004F01AF00DC009C010D01EB00FF000D0A50
:1013160000454550524F4D5F46554C4C0047756150
:10132600726461646F20656E20454550524F4D3A98
:10133600200041524455494E4F5F4C4953544F008B
:1013460054494D453A004F4B5F54494D455F555002
:1013560044415445440047455454494D450045527F
:10136600524F525F554E4B4E4F574E5F434F4D4D6A
:04137600414E4400A0
:00000001FF
