:020000040000FA
:100000000C945D000C9485000C9485000C94850084
:100010000C9485000C9485000C9485000C9485004C
:100020000C9485000C9485000C9485000C9485003C
:100030000C9485000C9485000C9485000C9485002C
:100040000C9408040C9485000C9478040C945204CD
:100050000C9485000C9485000C9485000C9485000C
:100060000C9485000C94850000000008000201003B
:100070000003040700000000000000000000000072
:10008000250028002B0000000000240027002A0083
:10009000040404040404040402020202020203032E
:1000A0000303030301020408102040800102040836
:1000B0001020010204081020B00611241FBECFEF4B
:1000C000D8E0DEBFCDBF21E0ACE3B1E001C01D92BE
:1000D000AE3EB207E1F711E0A0E0B1E0E6E0F3E107
:1000E00002C005900D92AC33B107D9F710E0CDE511
:1000F000D0E004C02197FE010E947207CC35D107E1
:10010000C9F70E94AA040C9481090C94000090E0A5
:10011000FC01EC55FF4F249180579F4FFC018491C7
:10012000882399F090E0880F991FFC01EA57FF4F50
:10013000A591B491FC01E458FF4F859194918FB73C
:10014000F894EC91E22BEC938FBF089590E0FC01C2
:10015000E859FF4F2491FC01EC55FF4F3491FC010D
:10016000E057FF4FE491EE23C9F0222339F023300A
:1001700001F1A8F4213019F1223029F1F0E0EE0F5D
:10018000FF1FE458FF4FA591B4918FB7F894EC91FD
:10019000611126C030953E233C938FBF08952730D0
:1001A000A9F02830C9F0243049F7809180008F7D74
:1001B00003C0809180008F7780938000DFCF84B56B
:1001C0008F7784BDDBCF84B58F7DFBCF8091B0006E
:1001D0008F778093B000D2CF8091B0008F7DF9CF20
:1001E0003E2BDACF1F93CF93DF93182FEB010E94A2
:1001F0008700209739F460E0812FDF91CF911F9124
:100200000C94A600CF3FD10511F461E0F5CFE12FAA
:10021000F0E0E859FF4FE491E33031F140F4E13090
:10022000B1F0E230E1F0C038D1057CF7E4CFE7303F
:1002300029F1E83059F1E430B1F780918000806213
:1002400080938000D0938B00C0938A0004C084B553
:10025000806884BDC7BDDF91CF911F91089584B59B
:10026000806284BDC8BDF7CF809180008068809394
:100270008000D0938900C0938800EDCF8091B000BA
:1002800080688093B000C093B300E5CF8091B00048
:1002900080628093B000C093B400DDCFAF92BF9274
:1002A000CF92DF92EF92FF920F931F93CF93DF9342
:1002B0006C017B018B01040F151FEB015E01AE1871
:1002C000BF08C017D10759F06991D601ED91FC9193
:1002D0000190F081E02DC6010995892B79F7C501C0
:1002E000DF91CF911F910F91FF90EF90DF90CF9012
:1002F000BF90AF900895FC01538D448D252F30E0C1
:10030000842F90E0821B930B541710F0CF96089522
:1003100001970895FC01918D828D981761F0A28D4F
:10032000AE0FBF2FB11D5D968C91928D9F5F9F7315
:10033000928F90E008958FEF9FEF08952FB7F89474
:100340008091490190914A01A0914B01B0914C01DB
:100350002FBF8093550190935601A0935701B093FE
:1003600058018DE491E00E948A0197FF26C02FB7C3
:10037000F8948091490190914A01A0914B01B0916C
:100380004C012FBF4091550150915601609157018A
:1003900070915801841B950BA60BB70B409151012E
:1003A0005091520160915301709154018417950747
:1003B000A607B707B0F28FEF9FEF0895FC01918D6C
:1003C000828D981731F0828DE80FF11D858D90E0B8
:1003D00008958FEF9FEF0895FC01918D228D892F55
:1003E00090E0805C9F4F821B91098F73992708953D
:1003F0008DE491E00E94EC0121E0892B09F420E0DA
:10040000822F089580E090E0892B29F00E94F80166
:1004100081110C9400000895FC01A48DA80FB92F40
:10042000B11DA35ABF4F2C91848D90E001968F731C
:100430009927848FA689B7892C93A089B1898C913B
:10044000837080648C93938D848D981306C002888A
:10045000F389E02D80818F7D80830895EF92FF9254
:100460000F931F93CF93DF93EC0181E0888F9B8DD7
:100470008C8D98131AC0E889F989808185FF15C091
:100480009FB7F894EE89FF896083E889F9898081B4
:100490008370806480839FBF81E090E0DF91CF9183
:1004A0001F910F91FF90EF900895F62E0B8D10E0A5
:1004B0000F5F1F4F0F731127E02E8C8D8E110CC014
:1004C0000FB607FCFACFE889F989808185FFF5CF5F
:1004D000CE010E940C02F1CFEB8DEC0FFD2FF11D30
:1004E000E35AFF4FF0829FB7F8940B8FEA89FB899C
:1004F00080818062CFCFCF93DF93EC01888D8823FA
:10050000B9F0AA89BB89E889F9898C9185FD03C076
:10051000808186FD0DC00FB607FCF7CF8C9185FF5B
:10052000F2CF808185FFEDCFCE010E940C02E9CF92
:10053000DF91CF910895FC0101900020E9F73197F8
:10054000AF01481B590BBC018DE491E00C944E01A6
:100550008F929F92AF92BF920F931F93CF93DF938F
:10056000CDB7DEB7A1970FB6F894DEBF0FBECDBFF3
:1005700019A2423008F44AE08E010F5D1F4F842E0D
:10058000912CB12CA12CA50194010E945007E62FBB
:10059000B901CA01EA30F4F4E05DD801EE938D01AF
:1005A000232B242B252B79F790E080E0109719F06E
:1005B000CD010E949B02A1960FB6F894DEBF0FBE3C
:1005C000CDBFDF91CF911F910F91BF90AF909F90C2
:1005D0008F900895E95CE1CFCF92DF92EF92FF9286
:1005E000CF93DF936B017C016DE28DE491E00E947B
:1005F0002E02EC0166277727CB016C197D098E0945
:100600009F094AE00E94A8028C0F9D1FDF91CF91A5
:10061000FF90EF90DF90CF900895BC01990F880B69
:10062000990B97FD0C94EC024AE00C94A802FC0193
:1006300080819181009711F00C9414080895FC01B9
:1006400080819181009711F00C94DD0660E070E0EC
:10065000CB010895FB0144815581FC012481358142
:100660002417350778F080819181009759F0FB01BC
:10067000608171816115710529F00E94730921E083
:10068000892B09F020E0822F08950F931F93CF93B9
:10069000DF93EC0188819981009759F02A813B8191
:1006A0002617370730F081E0DF91CF911F910F912E
:1006B00008958B016F5F7F4F0E949D08009759F04E
:1006C000998388831B830A832C813D81232B59F7CF
:1006D000FC011082E8CF80E0E7CFEF92FF920F930A
:1006E0001F93CF93DF93EC017B018A01BA010E9433
:1006F000450328813981811114C02115310519F074
:10070000C9010E941408198218821D821C821B8252
:100710001A82CE01DF91CF911F910F91FF90EF9040
:1007200008951D830C83B701C9010E946C09F1CFA4
:10073000FC01118210821382128215821482FB0145
:1007400001900020E9F73197AF01461B570B0C943D
:100750006D03AF92BF92CF92DF92EF92FF920F9311
:100760001F93CF93DF93EC016B015A01790124179A
:10077000350720F48B2D5901E42EF82E6AE371E041
:10078000CE010E949803D60114960D911C91A016DB
:10079000B10628F5E016F10608F48701D601ED91BF
:1007A000FC911197E00FF11FF08010826D917C9108
:1007B0006A0D7B1D61157105F1F0FB0101900020B0
:1007C000E9F73197AF01461B570BCE010E946D032D
:1007D000F60180819181080F191FD801FC92CE018A
:1007E000DF91CF911F910F91FF90EF90DF90CF900D
:1007F000BF90AF90089588819981009711F00E9471
:100800001408198218821D821C821B821A82E0CF72
:100810001F920F920FB60F9211242F933F938F9335
:100820009F93AF93BF938091490190914A01A0910A
:100830004B01B0914C013091480123E0230F2D373B
:1008400058F50196A11DB11D2093480180934901DF
:1008500090934A01A0934B01B0934C0180914401C5
:1008600090914501A0914601B09147010196A11DCB
:10087000B11D8093440190934501A0934601B0932C
:100880004701BF91AF919F918F913F912F910F9011
:100890000FBE0F901F90189526E8230F0296A11DFA
:1008A000B11DD2CF1F920F920FB60F9211242F932A
:1008B0003F934F935F936F937F938F939F93AF93E8
:1008C000BF93EF93FF938DE491E00E940C02FF91A0
:1008D000EF91BF91AF919F918F917F916F915F91B8
:1008E0004F913F912F910F900FBE0F901F90189531
:1008F0001F920F920FB60F9211242F938F939F93F5
:10090000EF93FF93E0915D01F0915E018081E091B2
:100910006301F091640182FD1BC0908180916601AA
:100920008F5F8F7320916701821741F0E09166011C
:10093000F0E0E35BFE4F958F80936601FF91EF91AE
:100940009F918F912F910F900FBE0F901F90189530
:100950008081F4CFCF93DF93CDB7DEB762970FB628
:10096000F894DEBF0FBECDBF789484B5826084BD9D
:1009700084B5816084BD85B5826085BD85B58160A3
:1009800085BD80916E00816080936E001092810021
:1009900080918100826080938100809181008160DC
:1009A000809381008091800081608093800080919D
:1009B000B10084608093B1008091B0008160809329
:1009C000B00080917A00846080937A0080917A00F0
:1009D000826080937A0080917A00816080937A00AF
:1009E00080917A00806880937A001092C100E09133
:1009F0005D01F0915E0182E08083E0915901F09108
:100A00005A011082E0915B01F0915C018FEC8083D0
:100A100010926501E0916101F091620186E08083AE
:100A2000E0915F01F0916001808180618083E091BD
:100A30005F01F0916001808188608083E0915F01B7
:100A4000F0916001808180688083E0915F01F09186
:100A5000600180818F7D808389E00E9487008AE029
:100A60000E9487008BE00E9487008DE00E94870033
:100A700083E4D82E90E0E92E90E0F92E8DE491E009
:100A80000E94EC01181619060CF096C06AE371E09A
:100A9000CE010D960E9498030E949E0197FD1EC0F4
:100AA0008A309105D9F089831A8209891A890F5FE2
:100AB0001F4FB801CE010D960E944503882361F3B4
:100AC0002D853E8589899A89BE016F5F7F4F820F90
:100AD000931F0E946C091A8B098BDECF18861F8228
:100AE0001A8619861C861B866D857E8561157105A3
:100AF00031F049895A89CE0107960E946D038B8592
:100B00009C85892B09F468C068E171E08F81988524
:100B10000E946309892B09F05FC0D0927C0080910C
:100B20007A00806480937A0080917A0086FDFCCF01
:100B300000917800109179008CE191E00E949B0275
:100B400080914201909143010E940D0380E291E067
:100B50000E949B0280914001909141010E940D03EF
:100B600086E291E00E949B0280913E0190913F01BC
:100B70000E940D038CE291E00E949B0280913C0157
:100B800090913D010E940D0382E391E00E949B023F
:100B9000B801110F880B990B97FF1AC00E94EC0245
:100BA00088E391E00E949B02CE0107960E94170302
:100BB000CE010D960E941703E114F10409F45ECFF3
:100BC0000E94F801882309F459CF0E94000056CFF3
:100BD0004AE00E94A802E4CF6CE171E0CE010196E8
:100BE0000E949803BE016F5F7F4FCE0107960E945F
:100BF0002A03182FCE0101960E9417031123E9F052
:100C00002B853C8543E050E0BE01695F7F4FCE01FC
:100C100001960E94A903CE0101960E941F034B0179
:100C20007093430160934201CE0101960E94170325
:100C3000B40189E00E94F200B7CF61E271E0CE0119
:100C400001960E949803BE016F5F7F4FCE01079609
:100C50000E942A03182FCE0101960E941703112328
:100C6000D9F02B853C8544E050E0BE01695F7F4FA1
:100C7000CE0101960E94A903CE0101960E941F0396
:100C80004B017093410160934001CE0101960E9497
:100C90001703B4018AE0CECF67E271E0CE0101967E
:100CA0000E949803BE016F5F7F4FCE0107960E949E
:100CB0002A03182FCE0101960E9417031123D9F0A1
:100CC0002B853C8544E050E0BE01695F7F4FCE013B
:100CD00001960E94A903CE0101960E941F034B01B9
:100CE00070933F0160933E01CE0101960E9417036D
:100CF000B4018BE09FCF6DE271E0CE0101960E94BE
:100D00009803BE016F5F7F4FCE0107960E942A03B2
:100D1000182FCE0101960E941703112309F444CF26
:100D20002B853C8544E050E0BE01695F7F4FCE01DA
:100D300001960E94A903CE0101960E941F038B0118
:100D400070933D0160933C01CE0101960E94170310
:100D500061E0012B09F460E08DE00E94A60024CF41
:100D6000EDE4F1E01382128288EE93E0A0E0B0E0BF
:100D700084839583A683B7838AE091E091838083FF
:100D800085EC90E09587848784EC90E09787868750
:100D900080EC90E0918B808B81EC90E0938B828B48
:100DA00082EC90E0958B848B86EC90E0978B868B21
:100DB000118E128E138E148E08951F93FC019927A5
:100DC0008827BC01E89411911032E9F3193010F032
:100DD0001E30C8F31B3251F01D3249F4689406C02E
:100DE0000E940407610F711D811D911D1191105307
:100DF0001A30B0F33EF490958095709561957F4FD1
:100E00008F4F9F4F1F910895592F482F372F262F0F
:100E1000660F771F881F991F660F771F881F991FFE
:100E2000620F731F841F951F660F771F881F991FFE
:100E300008952F923F924F925F926F927F928F927E
:100E40009F92AF92BF92CF92DF92EF92FF920F9359
:100E50001F93CF93DF93CDB7DEB7CA1BDB0B0FB663
:100E6000F894DEBF0FBECDBF09942A883988488820
:100E70005F846E847D848C849B84AA84B984C884B6
:100E8000DF80EE80FD800C811B81AA81B981CE0FAD
:100E9000D11D0FB6F894DEBF0FBECDBFED01089592
:100EA000A1E21A2EAA1BBB1BFD010DC0AA1FBB1F6E
:100EB000EE1FFF1FA217B307E407F50720F0A21BE0
:100EC000B30BE40BF50B661F771F881F991F1A944D
:100ED00069F760957095809590959B01AC01BD0177
:100EE000CF010895EE0FFF1F0590F491E02D0994B6
:100EF0000F931F93CF93DF938230910510F482E01C
:100F000090E0E091EC01F091ED0130E020E0B0E004
:100F1000A0E0309799F42115310509F44AC0281B47
:100F2000390B24303105D8F58A819B816115710513
:100F300089F1FB0193838283FE0111C040815181BD
:100F40000281138148175907E0F04817590799F4AF
:100F5000109761F012960C93129713961C93329689
:100F6000CF01DF91CF911F910F9108950093EC0174
:100F70001093ED01F4CF2115310551F042175307BD
:100F800038F0A901DB019A01BD01DF01F801C1CFF1
:100F9000EF01F9CF9093ED018093EC01CDCFFE01ED
:100FA000E20FF31F819391932250310939832883F3
:100FB000D7CF2091EA013091EB01232B41F420910E
:100FC0000201309103013093EB012093EA0120915B
:100FD0000001309101012115310541F42DB73EB7D3
:100FE0004091040150910501241B350BE091EA0169
:100FF000F091EB01E217F307A0F42E1B3F0B28172B
:10100000390778F0AC014E5F5F4F2417350748F081
:101010004E0F5F1F5093EB014093EA018193919330
:101020009FCFF0E0E0E09CCFCF93DF930097E9F013
:10103000FC01329713821282A091EC01B091ED0174
:10104000ED0130E020E01097A1F420813181820F82
:10105000931F2091EA013091EB012817390709F01D
:1010600061C0F093EB01E093EA01DF91CF91089525
:10107000EA01CE17DF07E8F54A815B819E01411541
:101080005105B1F7E901FB83EA8349915991C40FF6
:10109000D51FEC17FD0761F4808191810296840FC2
:1010A000951FE90199838883828193819B838A8339
:1010B000F0E0E0E012968D919C9113970097B9F5BE
:1010C0002D913C911197CD010296820F931F209193
:1010D000EA013091EB012817390739F6309751F5BD
:1010E0001092ED011092EC01B093EB01A093EA0194
:1010F000BCCFD383C28340815181840F951FC81711
:10110000D90761F44E5F5F4F88819981480F591F5D
:10111000518340838A819B8193838283211531058A
:1011200009F0B0CFF093ED01E093EC019ECFFD010B
:10113000DC01C0CF13821282D7CFB0E0A0E0E3EA97
:10114000F8E00C941B078C01009751F4CB010E942E
:1011500078078C01C801CDB7DEB7E0E10C94370702
:10116000FC01E60FF71F9C0122503109E217F3073B
:1011700008F49DC0D901CD91DC911197C617D7070E
:1011800098F0C530D10530F3CE0104978617970744
:1011900008F3C61BD70B2297C193D1936D937C9311
:1011A000CF010E941408D6CF5B01AC1ABD0A4C01D6
:1011B0008C0E9D1EA091EC01B091ED01512C412CA3
:1011C000F12CE12C109731F58091EA019091EB011F
:1011D0008815990509F05CC04616570608F058C0F6
:1011E0008091000190910101009741F48DB79EB765
:1011F0004091040150910501841B950BE817F907F4
:1012000008F055C0F093EB01E093EA01F901718316
:101210006083A0CF8D919C91119712966C9012973C
:1012200013967C901397A815B90559F56C0142E007
:10123000C40ED11CCA14DB0420F1AC014A195B09AD
:10124000DA011296159780F062827382518340838F
:10125000D9016D937C93E114F10471F0D7011396D9
:10126000FC93EE93129776CF22968C0F9D1FF90177
:1012700091838083F301EFCFF093ED01E093EC01D4
:1012800069CF4816590608F42C017D01D3019ACF85
:10129000CB010E9478077C01009749F0AE01B801AC
:1012A0000E945A09C8010E941408870153CF10E018
:1012B00000E050CFFB01DC0102C001900D924150D3
:1012C0005040D8F70895FB01DC018D910190801901
:1012D0000110D9F3990B0895FB01DC0101900D92E7
:1012E0000020E1F70895FB01DC014150504030F04F
:1012F0008D910190801919F40020B9F7881B990B82
:101300000895F894FFCF0000EE0180000000000077
:101310002E024E017B017B02EC018A01DE01474572
:1013200054004C393A003B4C31303A003B4C31319F
:101330003A003B4C31333A003B4C44523A000D0AE0
:021340000000AB
:107E0000112484B714BE81FFF0D085E080938100F7
:107E100082E08093C00088E18093C10086E0809377
:107E2000C20080E18093C4008EE0C9D0259A86E02C
:107E300020E33CEF91E0309385002093840096BBD3
:107E4000B09BFECF1D9AA8958150A9F7CC24DD24C4
:107E500088248394B5E0AB2EA1E19A2EF3E0BF2EE7
:107E6000A2D0813461F49FD0082FAFD0023811F036
:107E7000013811F484E001C083E08DD089C08234E0
:107E800011F484E103C0853419F485E0A6D080C0E4
:107E9000853579F488D0E82EFF2485D0082F10E0AE
:107EA000102F00270E291F29000F111F8ED06801E7
:107EB0006FC0863521F484E090D080E0DECF843638
:107EC00009F040C070D06FD0082F6DD080E0C81688
:107ED00080E7D80618F4F601B7BEE895C0E0D1E017
:107EE00062D089930C17E1F7F0E0CF16F0E7DF06D8
:107EF00018F0F601B7BEE89568D007B600FCFDCFD4
:107F0000A601A0E0B1E02C9130E011968C91119780
:107F100090E0982F8827822B932B1296FA010C0160
:107F200087BEE89511244E5F5F4FF1E0A038BF0790
:107F300051F7F601A7BEE89507B600FCFDCF97BE46
:107F4000E89526C08437B1F42ED02DD0F82E2BD052
:107F50003CD0F601EF2C8F010F5F1F4F84911BD097
:107F6000EA94F801C1F70894C11CD11CFA94CF0C13
:107F7000D11C0EC0853739F428D08EE10CD085E9AC
:107F80000AD08FE07ACF813511F488E018D01DD067
:107F900080E101D065CF982F8091C00085FFFCCF94
:107FA0009093C60008958091C00087FFFCCF809118
:107FB000C00084FD01C0A8958091C6000895E0E648
:107FC000F0E098E1908380830895EDDF803219F02E
:107FD00088E0F5DFFFCF84E1DECF1F93182FE3DFCA
:107FE0001150E9F7F2DF1F91089580E0E8DFEE27F6
:047FF000FF270994CA
:027FFE00040479
:00000001FF
